{
  "_format": "hh-sol-artifact-1",
  "contractName": "ArtCollectibles",
  "sourceName": "contracts/erc721.sol",
  "abi": [
    {
      "inputs": [
        {
          "internalType": "address",
          "name": "initialOwner",
          "type": "address"
        }
      ],
      "stateMutability": "nonpayable",
      "type": "constructor"
    },
    {
      "inputs": [
        {
          "internalType": "address",
          "name": "sender",
          "type": "address"
        },
        {
          "internalType": "uint256",
          "name": "tokenId",
          "type": "uint256"
        },
        {
          "internalType": "address",
          "name": "owner",
          "type": "address"
        }
      ],
      "name": "ERC721IncorrectOwner",
      "type": "error"
    },
    {
      "inputs": [
        {
          "internalType": "address",
          "name": "operator",
          "type": "address"
        },
        {
          "internalType": "uint256",
          "name": "tokenId",
          "type": "uint256"
        }
      ],
      "name": "ERC721InsufficientApproval",
      "type": "error"
    },
    {
      "inputs": [
        {
          "internalType": "address",
          "name": "approver",
          "type": "address"
        }
      ],
      "name": "ERC721InvalidApprover",
      "type": "error"
    },
    {
      "inputs": [
        {
          "internalType": "address",
          "name": "operator",
          "type": "address"
        }
      ],
      "name": "ERC721InvalidOperator",
      "type": "error"
    },
    {
      "inputs": [
        {
          "internalType": "address",
          "name": "owner",
          "type": "address"
        }
      ],
      "name": "ERC721InvalidOwner",
      "type": "error"
    },
    {
      "inputs": [
        {
          "internalType": "address",
          "name": "receiver",
          "type": "address"
        }
      ],
      "name": "ERC721InvalidReceiver",
      "type": "error"
    },
    {
      "inputs": [
        {
          "internalType": "address",
          "name": "sender",
          "type": "address"
        }
      ],
      "name": "ERC721InvalidSender",
      "type": "error"
    },
    {
      "inputs": [
        {
          "internalType": "uint256",
          "name": "tokenId",
          "type": "uint256"
        }
      ],
      "name": "ERC721NonexistentToken",
      "type": "error"
    },
    {
      "inputs": [
        {
          "internalType": "address",
          "name": "owner",
          "type": "address"
        }
      ],
      "name": "OwnableInvalidOwner",
      "type": "error"
    },
    {
      "inputs": [
        {
          "internalType": "address",
          "name": "account",
          "type": "address"
        }
      ],
      "name": "OwnableUnauthorizedAccount",
      "type": "error"
    },
    {
      "anonymous": false,
      "inputs": [
        {
          "indexed": true,
          "internalType": "address",
          "name": "owner",
          "type": "address"
        },
        {
          "indexed": true,
          "internalType": "address",
          "name": "approved",
          "type": "address"
        },
        {
          "indexed": true,
          "internalType": "uint256",
          "name": "tokenId",
          "type": "uint256"
        }
      ],
      "name": "Approval",
      "type": "event"
    },
    {
      "anonymous": false,
      "inputs": [
        {
          "indexed": true,
          "internalType": "address",
          "name": "owner",
          "type": "address"
        },
        {
          "indexed": true,
          "internalType": "address",
          "name": "operator",
          "type": "address"
        },
        {
          "indexed": false,
          "internalType": "bool",
          "name": "approved",
          "type": "bool"
        }
      ],
      "name": "ApprovalForAll",
      "type": "event"
    },
    {
      "anonymous": false,
      "inputs": [
        {
          "indexed": false,
          "internalType": "uint256",
          "name": "_fromTokenId",
          "type": "uint256"
        },
        {
          "indexed": false,
          "internalType": "uint256",
          "name": "_toTokenId",
          "type": "uint256"
        }
      ],
      "name": "BatchMetadataUpdate",
      "type": "event"
    },
    {
      "anonymous": false,
      "inputs": [
        {
          "indexed": false,
          "internalType": "uint256",
          "name": "_tokenId",
          "type": "uint256"
        }
      ],
      "name": "MetadataUpdate",
      "type": "event"
    },
    {
      "anonymous": false,
      "inputs": [
        {
          "indexed": false,
          "internalType": "address",
          "name": "recipient",
          "type": "address"
        },
        {
          "indexed": false,
          "internalType": "uint256",
          "name": "tokenId",
          "type": "uint256"
        },
        {
          "indexed": false,
          "internalType": "string",
          "name": "tokenURI",
          "type": "string"
        }
      ],
      "name": "NFTMinted",
      "type": "event"
    },
    {
      "anonymous": false,
      "inputs": [
        {
          "indexed": true,
          "internalType": "address",
          "name": "previousOwner",
          "type": "address"
        },
        {
          "indexed": true,
          "internalType": "address",
          "name": "newOwner",
          "type": "address"
        }
      ],
      "name": "OwnershipTransferred",
      "type": "event"
    },
    {
      "anonymous": false,
      "inputs": [
        {
          "indexed": true,
          "internalType": "address",
          "name": "from",
          "type": "address"
        },
        {
          "indexed": true,
          "internalType": "address",
          "name": "to",
          "type": "address"
        },
        {
          "indexed": true,
          "internalType": "uint256",
          "name": "tokenId",
          "type": "uint256"
        }
      ],
      "name": "Transfer",
      "type": "event"
    },
    {
      "inputs": [
        {
          "internalType": "address",
          "name": "to",
          "type": "address"
        },
        {
          "internalType": "uint256",
          "name": "tokenId",
          "type": "uint256"
        }
      ],
      "name": "approve",
      "outputs": [],
      "stateMutability": "nonpayable",
      "type": "function"
    },
    {
      "inputs": [
        {
          "internalType": "address",
          "name": "owner",
          "type": "address"
        }
      ],
      "name": "balanceOf",
      "outputs": [
        {
          "internalType": "uint256",
          "name": "",
          "type": "uint256"
        }
      ],
      "stateMutability": "view",
      "type": "function"
    },
    {
      "inputs": [
        {
          "internalType": "uint256",
          "name": "tokenId",
          "type": "uint256"
        }
      ],
      "name": "getApproved",
      "outputs": [
        {
          "internalType": "address",
          "name": "",
          "type": "address"
        }
      ],
      "stateMutability": "view",
      "type": "function"
    },
    {
      "inputs": [
        {
          "internalType": "address",
          "name": "owner",
          "type": "address"
        },
        {
          "internalType": "address",
          "name": "operator",
          "type": "address"
        }
      ],
      "name": "isApprovedForAll",
      "outputs": [
        {
          "internalType": "bool",
          "name": "",
          "type": "bool"
        }
      ],
      "stateMutability": "view",
      "type": "function"
    },
    {
      "inputs": [
        {
          "internalType": "address",
          "name": "recipient",
          "type": "address"
        },
        {
          "internalType": "string",
          "name": "tokenURI",
          "type": "string"
        }
      ],
      "name": "mintNFT",
      "outputs": [
        {
          "internalType": "uint256",
          "name": "",
          "type": "uint256"
        }
      ],
      "stateMutability": "nonpayable",
      "type": "function"
    },
    {
      "inputs": [],
      "name": "name",
      "outputs": [
        {
          "internalType": "string",
          "name": "",
          "type": "string"
        }
      ],
      "stateMutability": "view",
      "type": "function"
    },
    {
      "inputs": [],
      "name": "owner",
      "outputs": [
        {
          "internalType": "address",
          "name": "",
          "type": "address"
        }
      ],
      "stateMutability": "view",
      "type": "function"
    },
    {
      "inputs": [
        {
          "internalType": "uint256",
          "name": "tokenId",
          "type": "uint256"
        }
      ],
      "name": "ownerOf",
      "outputs": [
        {
          "internalType": "address",
          "name": "",
          "type": "address"
        }
      ],
      "stateMutability": "view",
      "type": "function"
    },
    {
      "inputs": [],
      "name": "renounceOwnership",
      "outputs": [],
      "stateMutability": "nonpayable",
      "type": "function"
    },
    {
      "inputs": [
        {
          "internalType": "address",
          "name": "from",
          "type": "address"
        },
        {
          "internalType": "address",
          "name": "to",
          "type": "address"
        },
        {
          "internalType": "uint256",
          "name": "tokenId",
          "type": "uint256"
        }
      ],
      "name": "safeTransferFrom",
      "outputs": [],
      "stateMutability": "nonpayable",
      "type": "function"
    },
    {
      "inputs": [
        {
          "internalType": "address",
          "name": "from",
          "type": "address"
        },
        {
          "internalType": "address",
          "name": "to",
          "type": "address"
        },
        {
          "internalType": "uint256",
          "name": "tokenId",
          "type": "uint256"
        },
        {
          "internalType": "bytes",
          "name": "data",
          "type": "bytes"
        }
      ],
      "name": "safeTransferFrom",
      "outputs": [],
      "stateMutability": "nonpayable",
      "type": "function"
    },
    {
      "inputs": [
        {
          "internalType": "address",
          "name": "operator",
          "type": "address"
        },
        {
          "internalType": "bool",
          "name": "approved",
          "type": "bool"
        }
      ],
      "name": "setApprovalForAll",
      "outputs": [],
      "stateMutability": "nonpayable",
      "type": "function"
    },
    {
      "inputs": [
        {
          "internalType": "bytes4",
          "name": "interfaceId",
          "type": "bytes4"
        }
      ],
      "name": "supportsInterface",
      "outputs": [
        {
          "internalType": "bool",
          "name": "",
          "type": "bool"
        }
      ],
      "stateMutability": "view",
      "type": "function"
    },
    {
      "inputs": [],
      "name": "symbol",
      "outputs": [
        {
          "internalType": "string",
          "name": "",
          "type": "string"
        }
      ],
      "stateMutability": "view",
      "type": "function"
    },
    {
      "inputs": [],
      "name": "tokenCounter",
      "outputs": [
        {
          "internalType": "uint256",
          "name": "",
          "type": "uint256"
        }
      ],
      "stateMutability": "view",
      "type": "function"
    },
    {
      "inputs": [
        {
          "internalType": "uint256",
          "name": "tokenId",
          "type": "uint256"
        }
      ],
      "name": "tokenURI",
      "outputs": [
        {
          "internalType": "string",
          "name": "",
          "type": "string"
        }
      ],
      "stateMutability": "view",
      "type": "function"
    },
    {
      "inputs": [
        {
          "internalType": "address",
          "name": "from",
          "type": "address"
        },
        {
          "internalType": "address",
          "name": "to",
          "type": "address"
        },
        {
          "internalType": "uint256",
          "name": "tokenId",
          "type": "uint256"
        }
      ],
      "name": "transferFrom",
      "outputs": [],
      "stateMutability": "nonpayable",
      "type": "function"
    },
    {
      "inputs": [
        {
          "internalType": "address",
          "name": "newOwner",
          "type": "address"
        }
      ],
      "name": "transferOwnership",
      "outputs": [],
      "stateMutability": "nonpayable",
      "type": "function"
    }
  ],
  "bytecode": "0x60806040523480156200001157600080fd5b5060405162002eaa38038062002eaa833981810160405281019062000037919062000290565b806040518060400160405280600f81526020017f417274436f6c6c65637469626c657300000000000000000000000000000000008152506040518060400160405280600381526020017f41525400000000000000000000000000000000000000000000000000000000008152508160009081620000b591906200053c565b508060019081620000c791906200053c565b505050600073ffffffffffffffffffffffffffffffffffffffff168173ffffffffffffffffffffffffffffffffffffffff16036200013f5760006040517f1e4fbdf700000000000000000000000000000000000000000000000000000000815260040162000136919062000634565b60405180910390fd5b62000150816200016060201b60201c565b5060006008819055505062000651565b6000600760009054906101000a900473ffffffffffffffffffffffffffffffffffffffff16905081600760006101000a81548173ffffffffffffffffffffffffffffffffffffffff021916908373ffffffffffffffffffffffffffffffffffffffff1602179055508173ffffffffffffffffffffffffffffffffffffffff168173ffffffffffffffffffffffffffffffffffffffff167f8be0079c531659141344cd1fd0a4f28419497f9722a3daafe3b4186f6b6457e060405160405180910390a35050565b600080fd5b600073ffffffffffffffffffffffffffffffffffffffff82169050919050565b600062000258826200022b565b9050919050565b6200026a816200024b565b81146200027657600080fd5b50565b6000815190506200028a816200025f565b92915050565b600060208284031215620002a957620002a862000226565b5b6000620002b98482850162000279565b91505092915050565b600081519050919050565b7f4e487b7100000000000000000000000000000000000000000000000000000000600052604160045260246000fd5b7f4e487b7100000000000000000000000000000000000000000000000000000000600052602260045260246000fd5b600060028204905060018216806200034457607f821691505b6020821081036200035a5762000359620002fc565b5b50919050565b60008190508160005260206000209050919050565b60006020601f8301049050919050565b600082821b905092915050565b600060088302620003c47fffffffffffffffffffffffffffffffffffffffffffffffffffffffffffffffff8262000385565b620003d0868362000385565b95508019841693508086168417925050509392505050565b6000819050919050565b6000819050919050565b60006200041d620004176200041184620003e8565b620003f2565b620003e8565b9050919050565b6000819050919050565b6200043983620003fc565b62000451620004488262000424565b84845462000392565b825550505050565b600090565b6200046862000459565b620004758184846200042e565b505050565b5b818110156200049d57620004916000826200045e565b6001810190506200047b565b5050565b601f821115620004ec57620004b68162000360565b620004c18462000375565b81016020851015620004d1578190505b620004e9620004e08562000375565b8301826200047a565b50505b505050565b600082821c905092915050565b60006200051160001984600802620004f1565b1980831691505092915050565b60006200052c8383620004fe565b9150826002028217905092915050565b6200054782620002c2565b67ffffffffffffffff811115620005635762000562620002cd565b5b6200056f82546200032b565b6200057c828285620004a1565b600060209050601f831160018114620005b457600084156200059f578287015190505b620005ab85826200051e565b8655506200061b565b601f198416620005c48662000360565b60005b82811015620005ee57848901518255600182019150602085019450602081019050620005c7565b868310156200060e57848901516200060a601f891682620004fe565b8355505b6001600288020188555050505b505050505050565b6200062e816200024b565b82525050565b60006020820190506200064b600083018462000623565b92915050565b61284980620006616000396000f3fe608060405234801561001057600080fd5b50600436106101165760003560e01c80638da5cb5b116100a2578063c87b56dd11610071578063c87b56dd146102cb578063d082e381146102fb578063e985e9c514610319578063eacabe1414610349578063f2fde38b1461037957610116565b80638da5cb5b1461025757806395d89b4114610275578063a22cb46514610293578063b88d4fde146102af57610116565b806323b872dd116100e957806323b872dd146101b557806342842e0e146101d15780636352211e146101ed57806370a082311461021d578063715018a61461024d57610116565b806301ffc9a71461011b57806306fdde031461014b578063081812fc14610169578063095ea7b314610199575b600080fd5b61013560048036038101906101309190611be0565b610395565b6040516101429190611c28565b60405180910390f35b6101536103f6565b6040516101609190611cd3565b60405180910390f35b610183600480360381019061017e9190611d2b565b610488565b6040516101909190611d99565b60405180910390f35b6101b360048036038101906101ae9190611de0565b6104a4565b005b6101cf60048036038101906101ca9190611e20565b6104ba565b005b6101eb60048036038101906101e69190611e20565b6105bc565b005b61020760048036038101906102029190611d2b565b6105dc565b6040516102149190611d99565b60405180910390f35b61023760048036038101906102329190611e73565b6105ee565b6040516102449190611eaf565b60405180910390f35b6102556106a8565b005b61025f6106bc565b60405161026c9190611d99565b60405180910390f35b61027d6106e6565b60405161028a9190611cd3565b60405180910390f35b6102ad60048036038101906102a89190611ef6565b610778565b005b6102c960048036038101906102c4919061206b565b61078e565b005b6102e560048036038101906102e09190611d2b565b6107b3565b6040516102f29190611cd3565b60405180910390f35b6103036108c6565b6040516103109190611eaf565b60405180910390f35b610333600480360381019061032e91906120ee565b6108cc565b6040516103409190611c28565b60405180910390f35b610363600480360381019061035e91906121cf565b610960565b6040516103709190611eaf565b60405180910390f35b610393600480360381019061038e9190611e73565b610a7d565b005b6000634906490660e01b7bffffffffffffffffffffffffffffffffffffffffffffffffffffffff1916827bffffffffffffffffffffffffffffffffffffffffffffffffffffffff191614806103ef57506103ee82610b03565b5b9050919050565b6060600080546104059061225a565b80601f01602080910402602001604051908101604052809291908181526020018280546104319061225a565b801561047e5780601f106104535761010080835404028352916020019161047e565b820191906000526020600020905b81548152906001019060200180831161046157829003601f168201915b5050505050905090565b600061049382610be5565b5061049d82610c6d565b9050919050565b6104b682826104b1610caa565b610cb2565b5050565b600073ffffffffffffffffffffffffffffffffffffffff168273ffffffffffffffffffffffffffffffffffffffff160361052c5760006040517f64a0ae920000000000000000000000000000000000000000000000000000000081526004016105239190611d99565b60405180910390fd5b6000610540838361053b610caa565b610cc4565b90508373ffffffffffffffffffffffffffffffffffffffff168173ffffffffffffffffffffffffffffffffffffffff16146105b6578382826040517f64283d7b0000000000000000000000000000000000000000000000000000000081526004016105ad9392919061228b565b60405180910390fd5b50505050565b6105d78383836040518060200160405280600081525061078e565b505050565b60006105e782610be5565b9050919050565b60008073ffffffffffffffffffffffffffffffffffffffff168273ffffffffffffffffffffffffffffffffffffffff16036106615760006040517f89c62b640000000000000000000000000000000000000000000000000000000081526004016106589190611d99565b60405180910390fd5b600360008373ffffffffffffffffffffffffffffffffffffffff1673ffffffffffffffffffffffffffffffffffffffff168152602001908152602001600020549050919050565b6106b0610ede565b6106ba6000610f65565b565b6000600760009054906101000a900473ffffffffffffffffffffffffffffffffffffffff16905090565b6060600180546106f59061225a565b80601f01602080910402602001604051908101604052809291908181526020018280546107219061225a565b801561076e5780601f106107435761010080835404028352916020019161076e565b820191906000526020600020905b81548152906001019060200180831161075157829003601f168201915b5050505050905090565b61078a610783610caa565b838361102b565b5050565b6107998484846104ba565b6107ad6107a4610caa565b8585858561119a565b50505050565b60606107be82610be5565b5060006006600084815260200190815260200160002080546107df9061225a565b80601f016020809104026020016040519081016040528092919081815260200182805461080b9061225a565b80156108585780601f1061082d57610100808354040283529160200191610858565b820191906000526020600020905b81548152906001019060200180831161083b57829003601f168201915b50505050509050600061086961134b565b9050600081510361087e5781925050506108c1565b6000825111156108b357808260405160200161089b9291906122fe565b604051602081830303815290604052925050506108c1565b6108bc84611362565b925050505b919050565b60085481565b6000600560008473ffffffffffffffffffffffffffffffffffffffff1673ffffffffffffffffffffffffffffffffffffffff16815260200190815260200160002060008373ffffffffffffffffffffffffffffffffffffffff1673ffffffffffffffffffffffffffffffffffffffff16815260200190815260200160002060009054906101000a900460ff16905092915050565b60006009826040516109729190612322565b908152602001604051809103902060009054906101000a900460ff16156109ce576040517f08c379a00000000000000000000000000000000000000000000000000000000081526004016109c590612385565b60405180910390fd5b600060085490506109df84826113cb565b6109e981846113e9565b60016009846040516109fb9190612322565b908152602001604051809103902060006101000a81548160ff02191690831515021790555060086000815480929190610a33906123d4565b91905055507fd35bb95e09c04b219e35047ce7b7b300e3384264ef84a40456943dbc0fc17c14848285604051610a6b9392919061241c565b60405180910390a18091505092915050565b610a85610ede565b600073ffffffffffffffffffffffffffffffffffffffff168173ffffffffffffffffffffffffffffffffffffffff1603610af75760006040517f1e4fbdf7000000000000000000000000000000000000000000000000000000008152600401610aee9190611d99565b60405180910390fd5b610b0081610f65565b50565b60007f80ac58cd000000000000000000000000000000000000000000000000000000007bffffffffffffffffffffffffffffffffffffffffffffffffffffffff1916827bffffffffffffffffffffffffffffffffffffffffffffffffffffffff19161480610bce57507f5b5e139f000000000000000000000000000000000000000000000000000000007bffffffffffffffffffffffffffffffffffffffffffffffffffffffff1916827bffffffffffffffffffffffffffffffffffffffffffffffffffffffff1916145b80610bde5750610bdd82611445565b5b9050919050565b600080610bf1836114af565b9050600073ffffffffffffffffffffffffffffffffffffffff168173ffffffffffffffffffffffffffffffffffffffff1603610c6457826040517f7e273289000000000000000000000000000000000000000000000000000000008152600401610c5b9190611eaf565b60405180910390fd5b80915050919050565b60006004600083815260200190815260200160002060009054906101000a900473ffffffffffffffffffffffffffffffffffffffff169050919050565b600033905090565b610cbf83838360016114ec565b505050565b600080610cd0846114af565b9050600073ffffffffffffffffffffffffffffffffffffffff168373ffffffffffffffffffffffffffffffffffffffff1614610d1257610d118184866116b1565b5b600073ffffffffffffffffffffffffffffffffffffffff168173ffffffffffffffffffffffffffffffffffffffff1614610da357610d546000856000806114ec565b6001600360008373ffffffffffffffffffffffffffffffffffffffff1673ffffffffffffffffffffffffffffffffffffffff168152602001908152602001600020600082825403925050819055505b600073ffffffffffffffffffffffffffffffffffffffff168573ffffffffffffffffffffffffffffffffffffffff1614610e26576001600360008773ffffffffffffffffffffffffffffffffffffffff1673ffffffffffffffffffffffffffffffffffffffff168152602001908152602001600020600082825401925050819055505b846002600086815260200190815260200160002060006101000a81548173ffffffffffffffffffffffffffffffffffffffff021916908373ffffffffffffffffffffffffffffffffffffffff160217905550838573ffffffffffffffffffffffffffffffffffffffff168273ffffffffffffffffffffffffffffffffffffffff167fddf252ad1be2c89b69c2b068fc378daa952ba7f163c4a11628f55a4df523b3ef60405160405180910390a4809150509392505050565b610ee6610caa565b73ffffffffffffffffffffffffffffffffffffffff16610f046106bc565b73ffffffffffffffffffffffffffffffffffffffff1614610f6357610f27610caa565b6040517f118cdaa7000000000000000000000000000000000000000000000000000000008152600401610f5a9190611d99565b60405180910390fd5b565b6000600760009054906101000a900473ffffffffffffffffffffffffffffffffffffffff16905081600760006101000a81548173ffffffffffffffffffffffffffffffffffffffff021916908373ffffffffffffffffffffffffffffffffffffffff1602179055508173ffffffffffffffffffffffffffffffffffffffff168173ffffffffffffffffffffffffffffffffffffffff167f8be0079c531659141344cd1fd0a4f28419497f9722a3daafe3b4186f6b6457e060405160405180910390a35050565b600073ffffffffffffffffffffffffffffffffffffffff168273ffffffffffffffffffffffffffffffffffffffff160361109c57816040517f5b08ba180000000000000000000000000000000000000000000000000000000081526004016110939190611d99565b60405180910390fd5b80600560008573ffffffffffffffffffffffffffffffffffffffff1673ffffffffffffffffffffffffffffffffffffffff16815260200190815260200160002060008473ffffffffffffffffffffffffffffffffffffffff1673ffffffffffffffffffffffffffffffffffffffff16815260200190815260200160002060006101000a81548160ff0219169083151502179055508173ffffffffffffffffffffffffffffffffffffffff168373ffffffffffffffffffffffffffffffffffffffff167f17307eab39ab6107e8899845ad3d59bd9653f200f220920489ca2b5937696c318360405161118d9190611c28565b60405180910390a3505050565b60008373ffffffffffffffffffffffffffffffffffffffff163b1115611344578273ffffffffffffffffffffffffffffffffffffffff1663150b7a02868685856040518563ffffffff1660e01b81526004016111f994939291906124af565b6020604051808303816000875af192505050801561123557506040513d601f19601f820116820180604052508101906112329190612510565b60015b6112b9573d8060008114611265576040519150601f19603f3d011682016040523d82523d6000602084013e61126a565b606091505b5060008151036112b157836040517f64a0ae920000000000000000000000000000000000000000000000000000000081526004016112a89190611d99565b60405180910390fd5b805181602001fd5b63150b7a0260e01b7bffffffffffffffffffffffffffffffffffffffffffffffffffffffff1916817bffffffffffffffffffffffffffffffffffffffffffffffffffffffff19161461134257836040517f64a0ae920000000000000000000000000000000000000000000000000000000081526004016113399190611d99565b60405180910390fd5b505b5050505050565b606060405180602001604052806000815250905090565b606061136d82610be5565b50600061137861134b565b9050600081511161139857604051806020016040528060008152506113c3565b806113a284611775565b6040516020016113b39291906122fe565b6040516020818303038152906040525b915050919050565b6113e5828260405180602001604052806000815250611843565b5050565b8060066000848152602001908152602001600020908161140991906126e9565b507ff8e1a15aba9398e019f0b49df1a4fde98ee17ae345cb5f6b5e2c27f5033e8ce7826040516114399190611eaf565b60405180910390a15050565b60007f01ffc9a7000000000000000000000000000000000000000000000000000000007bffffffffffffffffffffffffffffffffffffffffffffffffffffffff1916827bffffffffffffffffffffffffffffffffffffffffffffffffffffffff1916149050919050565b60006002600083815260200190815260200160002060009054906101000a900473ffffffffffffffffffffffffffffffffffffffff169050919050565b80806115255750600073ffffffffffffffffffffffffffffffffffffffff168273ffffffffffffffffffffffffffffffffffffffff1614155b1561165957600061153584610be5565b9050600073ffffffffffffffffffffffffffffffffffffffff168373ffffffffffffffffffffffffffffffffffffffff16141580156115a057508273ffffffffffffffffffffffffffffffffffffffff168173ffffffffffffffffffffffffffffffffffffffff1614155b80156115b357506115b181846108cc565b155b156115f557826040517fa9fbf51f0000000000000000000000000000000000000000000000000000000081526004016115ec9190611d99565b60405180910390fd5b811561165757838573ffffffffffffffffffffffffffffffffffffffff168273ffffffffffffffffffffffffffffffffffffffff167f8c5be1e5ebec7d5bd14f71427d1e84f3dd0314c0f7b2291e5b200ac8c7c3b92560405160405180910390a45b505b836004600085815260200190815260200160002060006101000a81548173ffffffffffffffffffffffffffffffffffffffff021916908373ffffffffffffffffffffffffffffffffffffffff16021790555050505050565b6116bc838383611867565b61177057600073ffffffffffffffffffffffffffffffffffffffff168373ffffffffffffffffffffffffffffffffffffffff160361173157806040517f7e2732890000000000000000000000000000000000000000000000000000000081526004016117289190611eaf565b60405180910390fd5b81816040517f177e802f0000000000000000000000000000000000000000000000000000000081526004016117679291906127bb565b60405180910390fd5b505050565b60606000600161178484611928565b01905060008167ffffffffffffffff8111156117a3576117a2611f40565b5b6040519080825280601f01601f1916602001820160405280156117d55781602001600182028036833780820191505090505b509050600082602001820190505b600115611838578080600190039150507f3031323334353637383961626364656600000000000000000000000000000000600a86061a8153600a858161182c5761182b6127e4565b5b049450600085036117e3575b819350505050919050565b61184d8383611a7b565b611862611858610caa565b600085858561119a565b505050565b60008073ffffffffffffffffffffffffffffffffffffffff168373ffffffffffffffffffffffffffffffffffffffff161415801561191f57508273ffffffffffffffffffffffffffffffffffffffff168473ffffffffffffffffffffffffffffffffffffffff1614806118e057506118df84846108cc565b5b8061191e57508273ffffffffffffffffffffffffffffffffffffffff1661190683610c6d565b73ffffffffffffffffffffffffffffffffffffffff16145b5b90509392505050565b600080600090507a184f03e93ff9f4daa797ed6e38ed64bf6a1f0100000000000000008310611986577a184f03e93ff9f4daa797ed6e38ed64bf6a1f010000000000000000838161197c5761197b6127e4565b5b0492506040810190505b6d04ee2d6d415b85acef810000000083106119c3576d04ee2d6d415b85acef810000000083816119b9576119b86127e4565b5b0492506020810190505b662386f26fc1000083106119f257662386f26fc1000083816119e8576119e76127e4565b5b0492506010810190505b6305f5e1008310611a1b576305f5e1008381611a1157611a106127e4565b5b0492506008810190505b6127108310611a40576127108381611a3657611a356127e4565b5b0492506004810190505b60648310611a635760648381611a5957611a586127e4565b5b0492506002810190505b600a8310611a72576001810190505b80915050919050565b600073ffffffffffffffffffffffffffffffffffffffff168273ffffffffffffffffffffffffffffffffffffffff1603611aed5760006040517f64a0ae92000000000000000000000000000000000000000000000000000000008152600401611ae49190611d99565b60405180910390fd5b6000611afb83836000610cc4565b9050600073ffffffffffffffffffffffffffffffffffffffff168173ffffffffffffffffffffffffffffffffffffffff1614611b6f5760006040517f73c6ac6e000000000000000000000000000000000000000000000000000000008152600401611b669190611d99565b60405180910390fd5b505050565b6000604051905090565b600080fd5b600080fd5b60007fffffffff0000000000000000000000000000000000000000000000000000000082169050919050565b611bbd81611b88565b8114611bc857600080fd5b50565b600081359050611bda81611bb4565b92915050565b600060208284031215611bf657611bf5611b7e565b5b6000611c0484828501611bcb565b91505092915050565b60008115159050919050565b611c2281611c0d565b82525050565b6000602082019050611c3d6000830184611c19565b92915050565b600081519050919050565b600082825260208201905092915050565b60005b83811015611c7d578082015181840152602081019050611c62565b60008484015250505050565b6000601f19601f8301169050919050565b6000611ca582611c43565b611caf8185611c4e565b9350611cbf818560208601611c5f565b611cc881611c89565b840191505092915050565b60006020820190508181036000830152611ced8184611c9a565b905092915050565b6000819050919050565b611d0881611cf5565b8114611d1357600080fd5b50565b600081359050611d2581611cff565b92915050565b600060208284031215611d4157611d40611b7e565b5b6000611d4f84828501611d16565b91505092915050565b600073ffffffffffffffffffffffffffffffffffffffff82169050919050565b6000611d8382611d58565b9050919050565b611d9381611d78565b82525050565b6000602082019050611dae6000830184611d8a565b92915050565b611dbd81611d78565b8114611dc857600080fd5b50565b600081359050611dda81611db4565b92915050565b60008060408385031215611df757611df6611b7e565b5b6000611e0585828601611dcb565b9250506020611e1685828601611d16565b9150509250929050565b600080600060608486031215611e3957611e38611b7e565b5b6000611e4786828701611dcb565b9350506020611e5886828701611dcb565b9250506040611e6986828701611d16565b9150509250925092565b600060208284031215611e8957611e88611b7e565b5b6000611e9784828501611dcb565b91505092915050565b611ea981611cf5565b82525050565b6000602082019050611ec46000830184611ea0565b92915050565b611ed381611c0d565b8114611ede57600080fd5b50565b600081359050611ef081611eca565b92915050565b60008060408385031215611f0d57611f0c611b7e565b5b6000611f1b85828601611dcb565b9250506020611f2c85828601611ee1565b9150509250929050565b600080fd5b600080fd5b7f4e487b7100000000000000000000000000000000000000000000000000000000600052604160045260246000fd5b611f7882611c89565b810181811067ffffffffffffffff82111715611f9757611f96611f40565b5b80604052505050565b6000611faa611b74565b9050611fb68282611f6f565b919050565b600067ffffffffffffffff821115611fd657611fd5611f40565b5b611fdf82611c89565b9050602081019050919050565b82818337600083830152505050565b600061200e61200984611fbb565b611fa0565b90508281526020810184848401111561202a57612029611f3b565b5b612035848285611fec565b509392505050565b600082601f83011261205257612051611f36565b5b8135612062848260208601611ffb565b91505092915050565b6000806000806080858703121561208557612084611b7e565b5b600061209387828801611dcb565b94505060206120a487828801611dcb565b93505060406120b587828801611d16565b925050606085013567ffffffffffffffff8111156120d6576120d5611b83565b5b6120e28782880161203d565b91505092959194509250565b6000806040838503121561210557612104611b7e565b5b600061211385828601611dcb565b925050602061212485828601611dcb565b9150509250929050565b600067ffffffffffffffff82111561214957612148611f40565b5b61215282611c89565b9050602081019050919050565b600061217261216d8461212e565b611fa0565b90508281526020810184848401111561218e5761218d611f3b565b5b612199848285611fec565b509392505050565b600082601f8301126121b6576121b5611f36565b5b81356121c684826020860161215f565b91505092915050565b600080604083850312156121e6576121e5611b7e565b5b60006121f485828601611dcb565b925050602083013567ffffffffffffffff81111561221557612214611b83565b5b612221858286016121a1565b9150509250929050565b7f4e487b7100000000000000000000000000000000000000000000000000000000600052602260045260246000fd5b6000600282049050600182168061227257607f821691505b6020821081036122855761228461222b565b5b50919050565b60006060820190506122a06000830186611d8a565b6122ad6020830185611ea0565b6122ba6040830184611d8a565b949350505050565b600081905092915050565b60006122d882611c43565b6122e281856122c2565b93506122f2818560208601611c5f565b80840191505092915050565b600061230a82856122cd565b915061231682846122cd565b91508190509392505050565b600061232e82846122cd565b915081905092915050565b7f546f6b656e2055524920616c7265616479207573656400000000000000000000600082015250565b600061236f601683611c4e565b915061237a82612339565b602082019050919050565b6000602082019050818103600083015261239e81612362565b9050919050565b7f4e487b7100000000000000000000000000000000000000000000000000000000600052601160045260246000fd5b60006123df82611cf5565b91507fffffffffffffffffffffffffffffffffffffffffffffffffffffffffffffffff8203612411576124106123a5565b5b600182019050919050565b60006060820190506124316000830186611d8a565b61243e6020830185611ea0565b81810360408301526124508184611c9a565b9050949350505050565b600081519050919050565b600082825260208201905092915050565b60006124818261245a565b61248b8185612465565b935061249b818560208601611c5f565b6124a481611c89565b840191505092915050565b60006080820190506124c46000830187611d8a565b6124d16020830186611d8a565b6124de6040830185611ea0565b81810360608301526124f08184612476565b905095945050505050565b60008151905061250a81611bb4565b92915050565b60006020828403121561252657612525611b7e565b5b6000612534848285016124fb565b91505092915050565b60008190508160005260206000209050919050565b60006020601f8301049050919050565b600082821b905092915050565b60006008830261259f7fffffffffffffffffffffffffffffffffffffffffffffffffffffffffffffffff82612562565b6125a98683612562565b95508019841693508086168417925050509392505050565b6000819050919050565b60006125e66125e16125dc84611cf5565b6125c1565b611cf5565b9050919050565b6000819050919050565b612600836125cb565b61261461260c826125ed565b84845461256f565b825550505050565b600090565b61262961261c565b6126348184846125f7565b505050565b5b818110156126585761264d600082612621565b60018101905061263a565b5050565b601f82111561269d5761266e8161253d565b61267784612552565b81016020851015612686578190505b61269a61269285612552565b830182612639565b50505b505050565b600082821c905092915050565b60006126c0600019846008026126a2565b1980831691505092915050565b60006126d983836126af565b9150826002028217905092915050565b6126f282611c43565b67ffffffffffffffff81111561270b5761270a611f40565b5b612715825461225a565b61272082828561265c565b600060209050601f8311600181146127535760008415612741578287015190505b61274b85826126cd565b8655506127b3565b601f1984166127618661253d565b60005b8281101561278957848901518255600182019150602085019450602081019050612764565b868310156127a657848901516127a2601f8916826126af565b8355505b6001600288020188555050505b505050505050565b60006040820190506127d06000830185611d8a565b6127dd6020830184611ea0565b9392505050565b7f4e487b7100000000000000000000000000000000000000000000000000000000600052601260045260246000fdfea2646970667358221220a27b6ca2090085717631011d2c52dd95744d7921d1a4a6579426798c52e3a84864736f6c63430008180033",
  "linkReferences": {},
  "deployedLinkReferences": {}
}