{
  "_format": "hh-sol-artifact-1",
  "contractName": "ArtCollectibles",
  "sourceName": "contracts/erc721.sol",
  "abi": [
    {
      "inputs": [
        {
          "internalType": "address",
          "name": "initialOwner",
          "type": "address"
        }
      ],
      "stateMutability": "nonpayable",
      "type": "constructor"
    },
    {
      "inputs": [
        {
          "internalType": "address",
          "name": "sender",
          "type": "address"
        },
        {
          "internalType": "uint256",
          "name": "tokenId",
          "type": "uint256"
        },
        {
          "internalType": "address",
          "name": "owner",
          "type": "address"
        }
      ],
      "name": "ERC721IncorrectOwner",
      "type": "error"
    },
    {
      "inputs": [
        {
          "internalType": "address",
          "name": "operator",
          "type": "address"
        },
        {
          "internalType": "uint256",
          "name": "tokenId",
          "type": "uint256"
        }
      ],
      "name": "ERC721InsufficientApproval",
      "type": "error"
    },
    {
      "inputs": [
        {
          "internalType": "address",
          "name": "approver",
          "type": "address"
        }
      ],
      "name": "ERC721InvalidApprover",
      "type": "error"
    },
    {
      "inputs": [
        {
          "internalType": "address",
          "name": "operator",
          "type": "address"
        }
      ],
      "name": "ERC721InvalidOperator",
      "type": "error"
    },
    {
      "inputs": [
        {
          "internalType": "address",
          "name": "owner",
          "type": "address"
        }
      ],
      "name": "ERC721InvalidOwner",
      "type": "error"
    },
    {
      "inputs": [
        {
          "internalType": "address",
          "name": "receiver",
          "type": "address"
        }
      ],
      "name": "ERC721InvalidReceiver",
      "type": "error"
    },
    {
      "inputs": [
        {
          "internalType": "address",
          "name": "sender",
          "type": "address"
        }
      ],
      "name": "ERC721InvalidSender",
      "type": "error"
    },
    {
      "inputs": [
        {
          "internalType": "uint256",
          "name": "tokenId",
          "type": "uint256"
        }
      ],
      "name": "ERC721NonexistentToken",
      "type": "error"
    },
    {
      "inputs": [
        {
          "internalType": "address",
          "name": "owner",
          "type": "address"
        }
      ],
      "name": "OwnableInvalidOwner",
      "type": "error"
    },
    {
      "inputs": [
        {
          "internalType": "address",
          "name": "account",
          "type": "address"
        }
      ],
      "name": "OwnableUnauthorizedAccount",
      "type": "error"
    },
    {
      "anonymous": false,
      "inputs": [
        {
          "indexed": true,
          "internalType": "address",
          "name": "owner",
          "type": "address"
        },
        {
          "indexed": true,
          "internalType": "address",
          "name": "approved",
          "type": "address"
        },
        {
          "indexed": true,
          "internalType": "uint256",
          "name": "tokenId",
          "type": "uint256"
        }
      ],
      "name": "Approval",
      "type": "event"
    },
    {
      "anonymous": false,
      "inputs": [
        {
          "indexed": true,
          "internalType": "address",
          "name": "owner",
          "type": "address"
        },
        {
          "indexed": true,
          "internalType": "address",
          "name": "operator",
          "type": "address"
        },
        {
          "indexed": false,
          "internalType": "bool",
          "name": "approved",
          "type": "bool"
        }
      ],
      "name": "ApprovalForAll",
      "type": "event"
    },
    {
      "anonymous": false,
      "inputs": [
        {
          "indexed": false,
          "internalType": "uint256",
          "name": "_fromTokenId",
          "type": "uint256"
        },
        {
          "indexed": false,
          "internalType": "uint256",
          "name": "_toTokenId",
          "type": "uint256"
        }
      ],
      "name": "BatchMetadataUpdate",
      "type": "event"
    },
    {
      "anonymous": false,
      "inputs": [
        {
          "indexed": false,
          "internalType": "uint256",
          "name": "_tokenId",
          "type": "uint256"
        }
      ],
      "name": "MetadataUpdate",
      "type": "event"
    },
    {
      "anonymous": false,
      "inputs": [
        {
          "indexed": false,
          "internalType": "uint256",
          "name": "tokenId",
          "type": "uint256"
        },
        {
          "indexed": false,
          "internalType": "uint256",
          "name": "price",
          "type": "uint256"
        },
        {
          "indexed": false,
          "internalType": "address",
          "name": "seller",
          "type": "address"
        }
      ],
      "name": "NFTListedForSale",
      "type": "event"
    },
    {
      "anonymous": false,
      "inputs": [
        {
          "indexed": false,
          "internalType": "address",
          "name": "recipient",
          "type": "address"
        },
        {
          "indexed": false,
          "internalType": "uint256",
          "name": "tokenId",
          "type": "uint256"
        },
        {
          "indexed": false,
          "internalType": "string",
          "name": "tokenURI",
          "type": "string"
        }
      ],
      "name": "NFTMinted",
      "type": "event"
    },
    {
      "anonymous": false,
      "inputs": [
        {
          "indexed": true,
          "internalType": "address",
          "name": "previousOwner",
          "type": "address"
        },
        {
          "indexed": true,
          "internalType": "address",
          "name": "newOwner",
          "type": "address"
        }
      ],
      "name": "OwnershipTransferred",
      "type": "event"
    },
    {
      "anonymous": false,
      "inputs": [
        {
          "indexed": true,
          "internalType": "address",
          "name": "from",
          "type": "address"
        },
        {
          "indexed": true,
          "internalType": "address",
          "name": "to",
          "type": "address"
        },
        {
          "indexed": true,
          "internalType": "uint256",
          "name": "tokenId",
          "type": "uint256"
        }
      ],
      "name": "Transfer",
      "type": "event"
    },
    {
      "inputs": [
        {
          "internalType": "address",
          "name": "to",
          "type": "address"
        },
        {
          "internalType": "uint256",
          "name": "tokenId",
          "type": "uint256"
        }
      ],
      "name": "approve",
      "outputs": [],
      "stateMutability": "nonpayable",
      "type": "function"
    },
    {
      "inputs": [
        {
          "internalType": "address",
          "name": "owner",
          "type": "address"
        }
      ],
      "name": "balanceOf",
      "outputs": [
        {
          "internalType": "uint256",
          "name": "",
          "type": "uint256"
        }
      ],
      "stateMutability": "view",
      "type": "function"
    },
    {
      "inputs": [
        {
          "internalType": "uint256",
          "name": "tokenId",
          "type": "uint256"
        }
      ],
      "name": "getApproved",
      "outputs": [
        {
          "internalType": "address",
          "name": "",
          "type": "address"
        }
      ],
      "stateMutability": "view",
      "type": "function"
    },
    {
      "inputs": [
        {
          "internalType": "uint256",
          "name": "tokenId",
          "type": "uint256"
        }
      ],
      "name": "getNFTPrice",
      "outputs": [
        {
          "internalType": "uint256",
          "name": "",
          "type": "uint256"
        }
      ],
      "stateMutability": "view",
      "type": "function"
    },
    {
      "inputs": [
        {
          "internalType": "address",
          "name": "owner",
          "type": "address"
        },
        {
          "internalType": "address",
          "name": "operator",
          "type": "address"
        }
      ],
      "name": "isApprovedForAll",
      "outputs": [
        {
          "internalType": "bool",
          "name": "",
          "type": "bool"
        }
      ],
      "stateMutability": "view",
      "type": "function"
    },
    {
      "inputs": [
        {
          "internalType": "uint256",
          "name": "tokenId",
          "type": "uint256"
        },
        {
          "internalType": "uint256",
          "name": "price",
          "type": "uint256"
        }
      ],
      "name": "listNFT",
      "outputs": [],
      "stateMutability": "nonpayable",
      "type": "function"
    },
    {
      "inputs": [
        {
          "internalType": "address",
          "name": "recipient",
          "type": "address"
        },
        {
          "internalType": "string",
          "name": "tokenURI",
          "type": "string"
        }
      ],
      "name": "mintNFT",
      "outputs": [
        {
          "internalType": "uint256",
          "name": "",
          "type": "uint256"
        }
      ],
      "stateMutability": "nonpayable",
      "type": "function"
    },
    {
      "inputs": [],
      "name": "name",
      "outputs": [
        {
          "internalType": "string",
          "name": "",
          "type": "string"
        }
      ],
      "stateMutability": "view",
      "type": "function"
    },
    {
      "inputs": [
        {
          "internalType": "uint256",
          "name": "",
          "type": "uint256"
        }
      ],
      "name": "nftPrices",
      "outputs": [
        {
          "internalType": "uint256",
          "name": "",
          "type": "uint256"
        }
      ],
      "stateMutability": "view",
      "type": "function"
    },
    {
      "inputs": [],
      "name": "owner",
      "outputs": [
        {
          "internalType": "address",
          "name": "",
          "type": "address"
        }
      ],
      "stateMutability": "view",
      "type": "function"
    },
    {
      "inputs": [
        {
          "internalType": "uint256",
          "name": "tokenId",
          "type": "uint256"
        }
      ],
      "name": "ownerOf",
      "outputs": [
        {
          "internalType": "address",
          "name": "",
          "type": "address"
        }
      ],
      "stateMutability": "view",
      "type": "function"
    },
    {
      "inputs": [],
      "name": "renounceOwnership",
      "outputs": [],
      "stateMutability": "nonpayable",
      "type": "function"
    },
    {
      "inputs": [
        {
          "internalType": "address",
          "name": "from",
          "type": "address"
        },
        {
          "internalType": "address",
          "name": "to",
          "type": "address"
        },
        {
          "internalType": "uint256",
          "name": "tokenId",
          "type": "uint256"
        }
      ],
      "name": "safeTransferFrom",
      "outputs": [],
      "stateMutability": "nonpayable",
      "type": "function"
    },
    {
      "inputs": [
        {
          "internalType": "address",
          "name": "from",
          "type": "address"
        },
        {
          "internalType": "address",
          "name": "to",
          "type": "address"
        },
        {
          "internalType": "uint256",
          "name": "tokenId",
          "type": "uint256"
        },
        {
          "internalType": "bytes",
          "name": "data",
          "type": "bytes"
        }
      ],
      "name": "safeTransferFrom",
      "outputs": [],
      "stateMutability": "nonpayable",
      "type": "function"
    },
    {
      "inputs": [
        {
          "internalType": "address",
          "name": "operator",
          "type": "address"
        },
        {
          "internalType": "bool",
          "name": "approved",
          "type": "bool"
        }
      ],
      "name": "setApprovalForAll",
      "outputs": [],
      "stateMutability": "nonpayable",
      "type": "function"
    },
    {
      "inputs": [
        {
          "internalType": "bytes4",
          "name": "interfaceId",
          "type": "bytes4"
        }
      ],
      "name": "supportsInterface",
      "outputs": [
        {
          "internalType": "bool",
          "name": "",
          "type": "bool"
        }
      ],
      "stateMutability": "view",
      "type": "function"
    },
    {
      "inputs": [],
      "name": "symbol",
      "outputs": [
        {
          "internalType": "string",
          "name": "",
          "type": "string"
        }
      ],
      "stateMutability": "view",
      "type": "function"
    },
    {
      "inputs": [],
      "name": "tokenCounter",
      "outputs": [
        {
          "internalType": "uint256",
          "name": "",
          "type": "uint256"
        }
      ],
      "stateMutability": "view",
      "type": "function"
    },
    {
      "inputs": [
        {
          "internalType": "uint256",
          "name": "tokenId",
          "type": "uint256"
        }
      ],
      "name": "tokenURI",
      "outputs": [
        {
          "internalType": "string",
          "name": "",
          "type": "string"
        }
      ],
      "stateMutability": "view",
      "type": "function"
    },
    {
      "inputs": [
        {
          "internalType": "address",
          "name": "from",
          "type": "address"
        },
        {
          "internalType": "address",
          "name": "to",
          "type": "address"
        },
        {
          "internalType": "uint256",
          "name": "tokenId",
          "type": "uint256"
        }
      ],
      "name": "transferFrom",
      "outputs": [],
      "stateMutability": "nonpayable",
      "type": "function"
    },
    {
      "inputs": [
        {
          "internalType": "address",
          "name": "newOwner",
          "type": "address"
        }
      ],
      "name": "transferOwnership",
      "outputs": [],
      "stateMutability": "nonpayable",
      "type": "function"
    }
  ],
  "bytecode": "0x60806040523480156200001157600080fd5b50604051620031db380380620031db833981810160405281019062000037919062000290565b806040518060400160405280600f81526020017f417274436f6c6c65637469626c657300000000000000000000000000000000008152506040518060400160405280600381526020017f41525400000000000000000000000000000000000000000000000000000000008152508160009081620000b591906200053c565b508060019081620000c791906200053c565b505050600073ffffffffffffffffffffffffffffffffffffffff168173ffffffffffffffffffffffffffffffffffffffff16036200013f5760006040517f1e4fbdf700000000000000000000000000000000000000000000000000000000815260040162000136919062000634565b60405180910390fd5b62000150816200016060201b60201c565b5060006008819055505062000651565b6000600760009054906101000a900473ffffffffffffffffffffffffffffffffffffffff16905081600760006101000a81548173ffffffffffffffffffffffffffffffffffffffff021916908373ffffffffffffffffffffffffffffffffffffffff1602179055508173ffffffffffffffffffffffffffffffffffffffff168173ffffffffffffffffffffffffffffffffffffffff167f8be0079c531659141344cd1fd0a4f28419497f9722a3daafe3b4186f6b6457e060405160405180910390a35050565b600080fd5b600073ffffffffffffffffffffffffffffffffffffffff82169050919050565b600062000258826200022b565b9050919050565b6200026a816200024b565b81146200027657600080fd5b50565b6000815190506200028a816200025f565b92915050565b600060208284031215620002a957620002a862000226565b5b6000620002b98482850162000279565b91505092915050565b600081519050919050565b7f4e487b7100000000000000000000000000000000000000000000000000000000600052604160045260246000fd5b7f4e487b7100000000000000000000000000000000000000000000000000000000600052602260045260246000fd5b600060028204905060018216806200034457607f821691505b6020821081036200035a5762000359620002fc565b5b50919050565b60008190508160005260206000209050919050565b60006020601f8301049050919050565b600082821b905092915050565b600060088302620003c47fffffffffffffffffffffffffffffffffffffffffffffffffffffffffffffffff8262000385565b620003d0868362000385565b95508019841693508086168417925050509392505050565b6000819050919050565b6000819050919050565b60006200041d620004176200041184620003e8565b620003f2565b620003e8565b9050919050565b6000819050919050565b6200043983620003fc565b62000451620004488262000424565b84845462000392565b825550505050565b600090565b6200046862000459565b620004758184846200042e565b505050565b5b818110156200049d57620004916000826200045e565b6001810190506200047b565b5050565b601f821115620004ec57620004b68162000360565b620004c18462000375565b81016020851015620004d1578190505b620004e9620004e08562000375565b8301826200047a565b50505b505050565b600082821c905092915050565b60006200051160001984600802620004f1565b1980831691505092915050565b60006200052c8383620004fe565b9150826002028217905092915050565b6200054782620002c2565b67ffffffffffffffff811115620005635762000562620002cd565b5b6200056f82546200032b565b6200057c828285620004a1565b600060209050601f831160018114620005b457600084156200059f578287015190505b620005ab85826200051e565b8655506200061b565b601f198416620005c48662000360565b60005b82811015620005ee57848901518255600182019150602085019450602081019050620005c7565b868310156200060e57848901516200060a601f891682620004fe565b8355505b6001600288020188555050505b505050505050565b6200062e816200024b565b82525050565b60006020820190506200064b600083018462000623565b92915050565b612b7a80620006616000396000f3fe608060405234801561001057600080fd5b50600436106101375760003560e01c806392976179116100b8578063c87b56dd1161007c578063c87b56dd14610338578063d082e38114610368578063d9f10a2b14610386578063e985e9c5146103b6578063eacabe14146103e6578063f2fde38b1461041657610137565b8063929761791461029657806394383f14146102c657806395d89b41146102e2578063a22cb46514610300578063b88d4fde1461031c57610137565b806342842e0e116100ff57806342842e0e146101f25780636352211e1461020e57806370a082311461023e578063715018a61461026e5780638da5cb5b1461027857610137565b806301ffc9a71461013c57806306fdde031461016c578063081812fc1461018a578063095ea7b3146101ba57806323b872dd146101d6575b600080fd5b61015660048036038101906101519190611dc2565b610432565b6040516101639190611e0a565b60405180910390f35b610174610493565b6040516101819190611eb5565b60405180910390f35b6101a4600480360381019061019f9190611f0d565b610525565b6040516101b19190611f7b565b60405180910390f35b6101d460048036038101906101cf9190611fc2565b610541565b005b6101f060048036038101906101eb9190612002565b610557565b005b61020c60048036038101906102079190612002565b610659565b005b61022860048036038101906102239190611f0d565b610679565b6040516102359190611f7b565b60405180910390f35b61025860048036038101906102539190612055565b61068b565b6040516102659190612091565b60405180910390f35b610276610745565b005b610280610759565b60405161028d9190611f7b565b60405180910390f35b6102b060048036038101906102ab9190611f0d565b610783565b6040516102bd9190612091565b60405180910390f35b6102e060048036038101906102db91906120ac565b6107a0565b005b6102ea6108b0565b6040516102f79190611eb5565b60405180910390f35b61031a60048036038101906103159190612118565b610942565b005b6103366004803603810190610331919061228d565b610958565b005b610352600480360381019061034d9190611f0d565b61097d565b60405161035f9190611eb5565b60405180910390f35b610370610a90565b60405161037d9190612091565b60405180910390f35b6103a0600480360381019061039b9190611f0d565b610a96565b6040516103ad9190612091565b60405180910390f35b6103d060048036038101906103cb9190612310565b610aae565b6040516103dd9190611e0a565b60405180910390f35b61040060048036038101906103fb91906123f1565b610b42565b60405161040d9190612091565b60405180910390f35b610430600480360381019061042b9190612055565b610c5f565b005b6000634906490660e01b7bffffffffffffffffffffffffffffffffffffffffffffffffffffffff1916827bffffffffffffffffffffffffffffffffffffffffffffffffffffffff1916148061048c575061048b82610ce5565b5b9050919050565b6060600080546104a29061247c565b80601f01602080910402602001604051908101604052809291908181526020018280546104ce9061247c565b801561051b5780601f106104f05761010080835404028352916020019161051b565b820191906000526020600020905b8154815290600101906020018083116104fe57829003601f168201915b5050505050905090565b600061053082610dc7565b5061053a82610e4f565b9050919050565b610553828261054e610e8c565b610e94565b5050565b600073ffffffffffffffffffffffffffffffffffffffff168273ffffffffffffffffffffffffffffffffffffffff16036105c95760006040517f64a0ae920000000000000000000000000000000000000000000000000000000081526004016105c09190611f7b565b60405180910390fd5b60006105dd83836105d8610e8c565b610ea6565b90508373ffffffffffffffffffffffffffffffffffffffff168173ffffffffffffffffffffffffffffffffffffffff1614610653578382826040517f64283d7b00000000000000000000000000000000000000000000000000000000815260040161064a939291906124ad565b60405180910390fd5b50505050565b61067483838360405180602001604052806000815250610958565b505050565b600061068482610dc7565b9050919050565b60008073ffffffffffffffffffffffffffffffffffffffff168273ffffffffffffffffffffffffffffffffffffffff16036106fe5760006040517f89c62b640000000000000000000000000000000000000000000000000000000081526004016106f59190611f7b565b60405180910390fd5b600360008373ffffffffffffffffffffffffffffffffffffffff1673ffffffffffffffffffffffffffffffffffffffff168152602001908152602001600020549050919050565b61074d6110c0565b6107576000611147565b565b6000600760009054906101000a900473ffffffffffffffffffffffffffffffffffffffff16905090565b600060096000838152602001908152602001600020549050919050565b3373ffffffffffffffffffffffffffffffffffffffff166107c083610679565b73ffffffffffffffffffffffffffffffffffffffff1614610816576040517f08c379a000000000000000000000000000000000000000000000000000000000815260040161080d90612530565b60405180910390fd5b60008111610859576040517f08c379a00000000000000000000000000000000000000000000000000000000081526004016108509061259c565b60405180910390fd5b8060096000848152602001908152602001600020819055507ff78e8b672552c30bd4dc6a4d47324c771c972cde77a97fe66da1c8d7adbdbd168282336040516108a4939291906125bc565b60405180910390a15050565b6060600180546108bf9061247c565b80601f01602080910402602001604051908101604052809291908181526020018280546108eb9061247c565b80156109385780601f1061090d57610100808354040283529160200191610938565b820191906000526020600020905b81548152906001019060200180831161091b57829003601f168201915b5050505050905090565b61095461094d610e8c565b838361120d565b5050565b610963848484610557565b61097761096e610e8c565b8585858561137c565b50505050565b606061098882610dc7565b5060006006600084815260200190815260200160002080546109a99061247c565b80601f01602080910402602001604051908101604052809291908181526020018280546109d59061247c565b8015610a225780601f106109f757610100808354040283529160200191610a22565b820191906000526020600020905b815481529060010190602001808311610a0557829003601f168201915b505050505090506000610a3361152d565b90506000815103610a48578192505050610a8b565b600082511115610a7d578082604051602001610a6592919061262f565b60405160208183030381529060405292505050610a8b565b610a8684611544565b925050505b919050565b60085481565b60096020528060005260406000206000915090505481565b6000600560008473ffffffffffffffffffffffffffffffffffffffff1673ffffffffffffffffffffffffffffffffffffffff16815260200190815260200160002060008373ffffffffffffffffffffffffffffffffffffffff1673ffffffffffffffffffffffffffffffffffffffff16815260200190815260200160002060009054906101000a900460ff16905092915050565b6000600a82604051610b549190612653565b908152602001604051809103902060009054906101000a900460ff1615610bb0576040517f08c379a0000000000000000000000000000000000000000000000000000000008152600401610ba7906126b6565b60405180910390fd5b60006008549050610bc184826115ad565b610bcb81846115cb565b6001600a84604051610bdd9190612653565b908152602001604051809103902060006101000a81548160ff02191690831515021790555060086000815480929190610c1590612705565b91905055507fd35bb95e09c04b219e35047ce7b7b300e3384264ef84a40456943dbc0fc17c14848285604051610c4d9392919061274d565b60405180910390a18091505092915050565b610c676110c0565b600073ffffffffffffffffffffffffffffffffffffffff168173ffffffffffffffffffffffffffffffffffffffff1603610cd95760006040517f1e4fbdf7000000000000000000000000000000000000000000000000000000008152600401610cd09190611f7b565b60405180910390fd5b610ce281611147565b50565b60007f80ac58cd000000000000000000000000000000000000000000000000000000007bffffffffffffffffffffffffffffffffffffffffffffffffffffffff1916827bffffffffffffffffffffffffffffffffffffffffffffffffffffffff19161480610db057507f5b5e139f000000000000000000000000000000000000000000000000000000007bffffffffffffffffffffffffffffffffffffffffffffffffffffffff1916827bffffffffffffffffffffffffffffffffffffffffffffffffffffffff1916145b80610dc05750610dbf82611627565b5b9050919050565b600080610dd383611691565b9050600073ffffffffffffffffffffffffffffffffffffffff168173ffffffffffffffffffffffffffffffffffffffff1603610e4657826040517f7e273289000000000000000000000000000000000000000000000000000000008152600401610e3d9190612091565b60405180910390fd5b80915050919050565b60006004600083815260200190815260200160002060009054906101000a900473ffffffffffffffffffffffffffffffffffffffff169050919050565b600033905090565b610ea183838360016116ce565b505050565b600080610eb284611691565b9050600073ffffffffffffffffffffffffffffffffffffffff168373ffffffffffffffffffffffffffffffffffffffff1614610ef457610ef3818486611893565b5b600073ffffffffffffffffffffffffffffffffffffffff168173ffffffffffffffffffffffffffffffffffffffff1614610f8557610f366000856000806116ce565b6001600360008373ffffffffffffffffffffffffffffffffffffffff1673ffffffffffffffffffffffffffffffffffffffff168152602001908152602001600020600082825403925050819055505b600073ffffffffffffffffffffffffffffffffffffffff168573ffffffffffffffffffffffffffffffffffffffff1614611008576001600360008773ffffffffffffffffffffffffffffffffffffffff1673ffffffffffffffffffffffffffffffffffffffff168152602001908152602001600020600082825401925050819055505b846002600086815260200190815260200160002060006101000a81548173ffffffffffffffffffffffffffffffffffffffff021916908373ffffffffffffffffffffffffffffffffffffffff160217905550838573ffffffffffffffffffffffffffffffffffffffff168273ffffffffffffffffffffffffffffffffffffffff167fddf252ad1be2c89b69c2b068fc378daa952ba7f163c4a11628f55a4df523b3ef60405160405180910390a4809150509392505050565b6110c8610e8c565b73ffffffffffffffffffffffffffffffffffffffff166110e6610759565b73ffffffffffffffffffffffffffffffffffffffff161461114557611109610e8c565b6040517f118cdaa700000000000000000000000000000000000000000000000000000000815260040161113c9190611f7b565b60405180910390fd5b565b6000600760009054906101000a900473ffffffffffffffffffffffffffffffffffffffff16905081600760006101000a81548173ffffffffffffffffffffffffffffffffffffffff021916908373ffffffffffffffffffffffffffffffffffffffff1602179055508173ffffffffffffffffffffffffffffffffffffffff168173ffffffffffffffffffffffffffffffffffffffff167f8be0079c531659141344cd1fd0a4f28419497f9722a3daafe3b4186f6b6457e060405160405180910390a35050565b600073ffffffffffffffffffffffffffffffffffffffff168273ffffffffffffffffffffffffffffffffffffffff160361127e57816040517f5b08ba180000000000000000000000000000000000000000000000000000000081526004016112759190611f7b565b60405180910390fd5b80600560008573ffffffffffffffffffffffffffffffffffffffff1673ffffffffffffffffffffffffffffffffffffffff16815260200190815260200160002060008473ffffffffffffffffffffffffffffffffffffffff1673ffffffffffffffffffffffffffffffffffffffff16815260200190815260200160002060006101000a81548160ff0219169083151502179055508173ffffffffffffffffffffffffffffffffffffffff168373ffffffffffffffffffffffffffffffffffffffff167f17307eab39ab6107e8899845ad3d59bd9653f200f220920489ca2b5937696c318360405161136f9190611e0a565b60405180910390a3505050565b60008373ffffffffffffffffffffffffffffffffffffffff163b1115611526578273ffffffffffffffffffffffffffffffffffffffff1663150b7a02868685856040518563ffffffff1660e01b81526004016113db94939291906127e0565b6020604051808303816000875af192505050801561141757506040513d601f19601f820116820180604052508101906114149190612841565b60015b61149b573d8060008114611447576040519150601f19603f3d011682016040523d82523d6000602084013e61144c565b606091505b50600081510361149357836040517f64a0ae9200000000000000000000000000000000000000000000000000000000815260040161148a9190611f7b565b60405180910390fd5b805181602001fd5b63150b7a0260e01b7bffffffffffffffffffffffffffffffffffffffffffffffffffffffff1916817bffffffffffffffffffffffffffffffffffffffffffffffffffffffff19161461152457836040517f64a0ae9200000000000000000000000000000000000000000000000000000000815260040161151b9190611f7b565b60405180910390fd5b505b5050505050565b606060405180602001604052806000815250905090565b606061154f82610dc7565b50600061155a61152d565b9050600081511161157a57604051806020016040528060008152506115a5565b8061158484611957565b60405160200161159592919061262f565b6040516020818303038152906040525b915050919050565b6115c7828260405180602001604052806000815250611a25565b5050565b806006600084815260200190815260200160002090816115eb9190612a1a565b507ff8e1a15aba9398e019f0b49df1a4fde98ee17ae345cb5f6b5e2c27f5033e8ce78260405161161b9190612091565b60405180910390a15050565b60007f01ffc9a7000000000000000000000000000000000000000000000000000000007bffffffffffffffffffffffffffffffffffffffffffffffffffffffff1916827bffffffffffffffffffffffffffffffffffffffffffffffffffffffff1916149050919050565b60006002600083815260200190815260200160002060009054906101000a900473ffffffffffffffffffffffffffffffffffffffff169050919050565b80806117075750600073ffffffffffffffffffffffffffffffffffffffff168273ffffffffffffffffffffffffffffffffffffffff1614155b1561183b57600061171784610dc7565b9050600073ffffffffffffffffffffffffffffffffffffffff168373ffffffffffffffffffffffffffffffffffffffff161415801561178257508273ffffffffffffffffffffffffffffffffffffffff168173ffffffffffffffffffffffffffffffffffffffff1614155b801561179557506117938184610aae565b155b156117d757826040517fa9fbf51f0000000000000000000000000000000000000000000000000000000081526004016117ce9190611f7b565b60405180910390fd5b811561183957838573ffffffffffffffffffffffffffffffffffffffff168273ffffffffffffffffffffffffffffffffffffffff167f8c5be1e5ebec7d5bd14f71427d1e84f3dd0314c0f7b2291e5b200ac8c7c3b92560405160405180910390a45b505b836004600085815260200190815260200160002060006101000a81548173ffffffffffffffffffffffffffffffffffffffff021916908373ffffffffffffffffffffffffffffffffffffffff16021790555050505050565b61189e838383611a49565b61195257600073ffffffffffffffffffffffffffffffffffffffff168373ffffffffffffffffffffffffffffffffffffffff160361191357806040517f7e27328900000000000000000000000000000000000000000000000000000000815260040161190a9190612091565b60405180910390fd5b81816040517f177e802f000000000000000000000000000000000000000000000000000000008152600401611949929190612aec565b60405180910390fd5b505050565b60606000600161196684611b0a565b01905060008167ffffffffffffffff81111561198557611984612162565b5b6040519080825280601f01601f1916602001820160405280156119b75781602001600182028036833780820191505090505b509050600082602001820190505b600115611a1a578080600190039150507f3031323334353637383961626364656600000000000000000000000000000000600a86061a8153600a8581611a0e57611a0d612b15565b5b049450600085036119c5575b819350505050919050565b611a2f8383611c5d565b611a44611a3a610e8c565b600085858561137c565b505050565b60008073ffffffffffffffffffffffffffffffffffffffff168373ffffffffffffffffffffffffffffffffffffffff1614158015611b0157508273ffffffffffffffffffffffffffffffffffffffff168473ffffffffffffffffffffffffffffffffffffffff161480611ac25750611ac18484610aae565b5b80611b0057508273ffffffffffffffffffffffffffffffffffffffff16611ae883610e4f565b73ffffffffffffffffffffffffffffffffffffffff16145b5b90509392505050565b600080600090507a184f03e93ff9f4daa797ed6e38ed64bf6a1f0100000000000000008310611b68577a184f03e93ff9f4daa797ed6e38ed64bf6a1f0100000000000000008381611b5e57611b5d612b15565b5b0492506040810190505b6d04ee2d6d415b85acef81000000008310611ba5576d04ee2d6d415b85acef81000000008381611b9b57611b9a612b15565b5b0492506020810190505b662386f26fc100008310611bd457662386f26fc100008381611bca57611bc9612b15565b5b0492506010810190505b6305f5e1008310611bfd576305f5e1008381611bf357611bf2612b15565b5b0492506008810190505b6127108310611c22576127108381611c1857611c17612b15565b5b0492506004810190505b60648310611c455760648381611c3b57611c3a612b15565b5b0492506002810190505b600a8310611c54576001810190505b80915050919050565b600073ffffffffffffffffffffffffffffffffffffffff168273ffffffffffffffffffffffffffffffffffffffff1603611ccf5760006040517f64a0ae92000000000000000000000000000000000000000000000000000000008152600401611cc69190611f7b565b60405180910390fd5b6000611cdd83836000610ea6565b9050600073ffffffffffffffffffffffffffffffffffffffff168173ffffffffffffffffffffffffffffffffffffffff1614611d515760006040517f73c6ac6e000000000000000000000000000000000000000000000000000000008152600401611d489190611f7b565b60405180910390fd5b505050565b6000604051905090565b600080fd5b600080fd5b60007fffffffff0000000000000000000000000000000000000000000000000000000082169050919050565b611d9f81611d6a565b8114611daa57600080fd5b50565b600081359050611dbc81611d96565b92915050565b600060208284031215611dd857611dd7611d60565b5b6000611de684828501611dad565b91505092915050565b60008115159050919050565b611e0481611def565b82525050565b6000602082019050611e1f6000830184611dfb565b92915050565b600081519050919050565b600082825260208201905092915050565b60005b83811015611e5f578082015181840152602081019050611e44565b60008484015250505050565b6000601f19601f8301169050919050565b6000611e8782611e25565b611e918185611e30565b9350611ea1818560208601611e41565b611eaa81611e6b565b840191505092915050565b60006020820190508181036000830152611ecf8184611e7c565b905092915050565b6000819050919050565b611eea81611ed7565b8114611ef557600080fd5b50565b600081359050611f0781611ee1565b92915050565b600060208284031215611f2357611f22611d60565b5b6000611f3184828501611ef8565b91505092915050565b600073ffffffffffffffffffffffffffffffffffffffff82169050919050565b6000611f6582611f3a565b9050919050565b611f7581611f5a565b82525050565b6000602082019050611f906000830184611f6c565b92915050565b611f9f81611f5a565b8114611faa57600080fd5b50565b600081359050611fbc81611f96565b92915050565b60008060408385031215611fd957611fd8611d60565b5b6000611fe785828601611fad565b9250506020611ff885828601611ef8565b9150509250929050565b60008060006060848603121561201b5761201a611d60565b5b600061202986828701611fad565b935050602061203a86828701611fad565b925050604061204b86828701611ef8565b9150509250925092565b60006020828403121561206b5761206a611d60565b5b600061207984828501611fad565b91505092915050565b61208b81611ed7565b82525050565b60006020820190506120a66000830184612082565b92915050565b600080604083850312156120c3576120c2611d60565b5b60006120d185828601611ef8565b92505060206120e285828601611ef8565b9150509250929050565b6120f581611def565b811461210057600080fd5b50565b600081359050612112816120ec565b92915050565b6000806040838503121561212f5761212e611d60565b5b600061213d85828601611fad565b925050602061214e85828601612103565b9150509250929050565b600080fd5b600080fd5b7f4e487b7100000000000000000000000000000000000000000000000000000000600052604160045260246000fd5b61219a82611e6b565b810181811067ffffffffffffffff821117156121b9576121b8612162565b5b80604052505050565b60006121cc611d56565b90506121d88282612191565b919050565b600067ffffffffffffffff8211156121f8576121f7612162565b5b61220182611e6b565b9050602081019050919050565b82818337600083830152505050565b600061223061222b846121dd565b6121c2565b90508281526020810184848401111561224c5761224b61215d565b5b61225784828561220e565b509392505050565b600082601f83011261227457612273612158565b5b813561228484826020860161221d565b91505092915050565b600080600080608085870312156122a7576122a6611d60565b5b60006122b587828801611fad565b94505060206122c687828801611fad565b93505060406122d787828801611ef8565b925050606085013567ffffffffffffffff8111156122f8576122f7611d65565b5b6123048782880161225f565b91505092959194509250565b6000806040838503121561232757612326611d60565b5b600061233585828601611fad565b925050602061234685828601611fad565b9150509250929050565b600067ffffffffffffffff82111561236b5761236a612162565b5b61237482611e6b565b9050602081019050919050565b600061239461238f84612350565b6121c2565b9050828152602081018484840111156123b0576123af61215d565b5b6123bb84828561220e565b509392505050565b600082601f8301126123d8576123d7612158565b5b81356123e8848260208601612381565b91505092915050565b6000806040838503121561240857612407611d60565b5b600061241685828601611fad565b925050602083013567ffffffffffffffff81111561243757612436611d65565b5b612443858286016123c3565b9150509250929050565b7f4e487b7100000000000000000000000000000000000000000000000000000000600052602260045260246000fd5b6000600282049050600182168061249457607f821691505b6020821081036124a7576124a661244d565b5b50919050565b60006060820190506124c26000830186611f6c565b6124cf6020830185612082565b6124dc6040830184611f6c565b949350505050565b7f596f7520646f6e2774206f776e2074686973204e465400000000000000000000600082015250565b600061251a601683611e30565b9150612525826124e4565b602082019050919050565b600060208201905081810360008301526125498161250d565b9050919050565b7f5072696365206d7573742062652067726561746572207468616e203000000000600082015250565b6000612586601c83611e30565b915061259182612550565b602082019050919050565b600060208201905081810360008301526125b581612579565b9050919050565b60006060820190506125d16000830186612082565b6125de6020830185612082565b6125eb6040830184611f6c565b949350505050565b600081905092915050565b600061260982611e25565b61261381856125f3565b9350612623818560208601611e41565b80840191505092915050565b600061263b82856125fe565b915061264782846125fe565b91508190509392505050565b600061265f82846125fe565b915081905092915050565b7f546f6b656e2055524920616c7265616479207573656400000000000000000000600082015250565b60006126a0601683611e30565b91506126ab8261266a565b602082019050919050565b600060208201905081810360008301526126cf81612693565b9050919050565b7f4e487b7100000000000000000000000000000000000000000000000000000000600052601160045260246000fd5b600061271082611ed7565b91507fffffffffffffffffffffffffffffffffffffffffffffffffffffffffffffffff8203612742576127416126d6565b5b600182019050919050565b60006060820190506127626000830186611f6c565b61276f6020830185612082565b81810360408301526127818184611e7c565b9050949350505050565b600081519050919050565b600082825260208201905092915050565b60006127b28261278b565b6127bc8185612796565b93506127cc818560208601611e41565b6127d581611e6b565b840191505092915050565b60006080820190506127f56000830187611f6c565b6128026020830186611f6c565b61280f6040830185612082565b818103606083015261282181846127a7565b905095945050505050565b60008151905061283b81611d96565b92915050565b60006020828403121561285757612856611d60565b5b60006128658482850161282c565b91505092915050565b60008190508160005260206000209050919050565b60006020601f8301049050919050565b600082821b905092915050565b6000600883026128d07fffffffffffffffffffffffffffffffffffffffffffffffffffffffffffffffff82612893565b6128da8683612893565b95508019841693508086168417925050509392505050565b6000819050919050565b600061291761291261290d84611ed7565b6128f2565b611ed7565b9050919050565b6000819050919050565b612931836128fc565b61294561293d8261291e565b8484546128a0565b825550505050565b600090565b61295a61294d565b612965818484612928565b505050565b5b818110156129895761297e600082612952565b60018101905061296b565b5050565b601f8211156129ce5761299f8161286e565b6129a884612883565b810160208510156129b7578190505b6129cb6129c385612883565b83018261296a565b50505b505050565b600082821c905092915050565b60006129f1600019846008026129d3565b1980831691505092915050565b6000612a0a83836129e0565b9150826002028217905092915050565b612a2382611e25565b67ffffffffffffffff811115612a3c57612a3b612162565b5b612a46825461247c565b612a5182828561298d565b600060209050601f831160018114612a845760008415612a72578287015190505b612a7c85826129fe565b865550612ae4565b601f198416612a928661286e565b60005b82811015612aba57848901518255600182019150602085019450602081019050612a95565b86831015612ad75784890151612ad3601f8916826129e0565b8355505b6001600288020188555050505b505050505050565b6000604082019050612b016000830185611f6c565b612b0e6020830184612082565b9392505050565b7f4e487b7100000000000000000000000000000000000000000000000000000000600052601260045260246000fdfea26469706673582212203e4337f0fe3563201118748b9c7f63de32ee3e97b28473622c9b862fc3a7330664736f6c63430008180033",
  "linkReferences": {},
  "deployedLinkReferences": {}
}