{
  "_format": "hh-sol-artifact-1",
  "contractName": "ArtCollectibles",
  "sourceName": "contracts/erc721.sol",
  "abi": [
    {
      "inputs": [
        {
          "internalType": "address",
          "name": "initialOwner",
          "type": "address"
        }
      ],
      "stateMutability": "nonpayable",
      "type": "constructor"
    },
    {
      "inputs": [
        {
          "internalType": "address",
          "name": "sender",
          "type": "address"
        },
        {
          "internalType": "uint256",
          "name": "tokenId",
          "type": "uint256"
        },
        {
          "internalType": "address",
          "name": "owner",
          "type": "address"
        }
      ],
      "name": "ERC721IncorrectOwner",
      "type": "error"
    },
    {
      "inputs": [
        {
          "internalType": "address",
          "name": "operator",
          "type": "address"
        },
        {
          "internalType": "uint256",
          "name": "tokenId",
          "type": "uint256"
        }
      ],
      "name": "ERC721InsufficientApproval",
      "type": "error"
    },
    {
      "inputs": [
        {
          "internalType": "address",
          "name": "approver",
          "type": "address"
        }
      ],
      "name": "ERC721InvalidApprover",
      "type": "error"
    },
    {
      "inputs": [
        {
          "internalType": "address",
          "name": "operator",
          "type": "address"
        }
      ],
      "name": "ERC721InvalidOperator",
      "type": "error"
    },
    {
      "inputs": [
        {
          "internalType": "address",
          "name": "owner",
          "type": "address"
        }
      ],
      "name": "ERC721InvalidOwner",
      "type": "error"
    },
    {
      "inputs": [
        {
          "internalType": "address",
          "name": "receiver",
          "type": "address"
        }
      ],
      "name": "ERC721InvalidReceiver",
      "type": "error"
    },
    {
      "inputs": [
        {
          "internalType": "address",
          "name": "sender",
          "type": "address"
        }
      ],
      "name": "ERC721InvalidSender",
      "type": "error"
    },
    {
      "inputs": [
        {
          "internalType": "uint256",
          "name": "tokenId",
          "type": "uint256"
        }
      ],
      "name": "ERC721NonexistentToken",
      "type": "error"
    },
    {
      "inputs": [
        {
          "internalType": "address",
          "name": "owner",
          "type": "address"
        }
      ],
      "name": "OwnableInvalidOwner",
      "type": "error"
    },
    {
      "inputs": [
        {
          "internalType": "address",
          "name": "account",
          "type": "address"
        }
      ],
      "name": "OwnableUnauthorizedAccount",
      "type": "error"
    },
    {
      "anonymous": false,
      "inputs": [
        {
          "indexed": true,
          "internalType": "address",
          "name": "owner",
          "type": "address"
        },
        {
          "indexed": true,
          "internalType": "address",
          "name": "approved",
          "type": "address"
        },
        {
          "indexed": true,
          "internalType": "uint256",
          "name": "tokenId",
          "type": "uint256"
        }
      ],
      "name": "Approval",
      "type": "event"
    },
    {
      "anonymous": false,
      "inputs": [
        {
          "indexed": true,
          "internalType": "address",
          "name": "owner",
          "type": "address"
        },
        {
          "indexed": true,
          "internalType": "address",
          "name": "operator",
          "type": "address"
        },
        {
          "indexed": false,
          "internalType": "bool",
          "name": "approved",
          "type": "bool"
        }
      ],
      "name": "ApprovalForAll",
      "type": "event"
    },
    {
      "anonymous": false,
      "inputs": [
        {
          "indexed": false,
          "internalType": "uint256",
          "name": "_fromTokenId",
          "type": "uint256"
        },
        {
          "indexed": false,
          "internalType": "uint256",
          "name": "_toTokenId",
          "type": "uint256"
        }
      ],
      "name": "BatchMetadataUpdate",
      "type": "event"
    },
    {
      "anonymous": false,
      "inputs": [
        {
          "indexed": false,
          "internalType": "uint256",
          "name": "_tokenId",
          "type": "uint256"
        }
      ],
      "name": "MetadataUpdate",
      "type": "event"
    },
    {
      "anonymous": false,
      "inputs": [
        {
          "indexed": false,
          "internalType": "address",
          "name": "recipient",
          "type": "address"
        },
        {
          "indexed": false,
          "internalType": "uint256",
          "name": "tokenId",
          "type": "uint256"
        },
        {
          "indexed": false,
          "internalType": "string",
          "name": "tokenURI",
          "type": "string"
        }
      ],
      "name": "NFTMinted",
      "type": "event"
    },
    {
      "anonymous": false,
      "inputs": [
        {
          "indexed": true,
          "internalType": "address",
          "name": "previousOwner",
          "type": "address"
        },
        {
          "indexed": true,
          "internalType": "address",
          "name": "newOwner",
          "type": "address"
        }
      ],
      "name": "OwnershipTransferred",
      "type": "event"
    },
    {
      "anonymous": false,
      "inputs": [
        {
          "indexed": true,
          "internalType": "address",
          "name": "from",
          "type": "address"
        },
        {
          "indexed": true,
          "internalType": "address",
          "name": "to",
          "type": "address"
        },
        {
          "indexed": true,
          "internalType": "uint256",
          "name": "tokenId",
          "type": "uint256"
        }
      ],
      "name": "Transfer",
      "type": "event"
    },
    {
      "inputs": [
        {
          "internalType": "address",
          "name": "to",
          "type": "address"
        },
        {
          "internalType": "uint256",
          "name": "tokenId",
          "type": "uint256"
        }
      ],
      "name": "approve",
      "outputs": [],
      "stateMutability": "nonpayable",
      "type": "function"
    },
    {
      "inputs": [
        {
          "internalType": "address",
          "name": "owner",
          "type": "address"
        }
      ],
      "name": "balanceOf",
      "outputs": [
        {
          "internalType": "uint256",
          "name": "",
          "type": "uint256"
        }
      ],
      "stateMutability": "view",
      "type": "function"
    },
    {
      "inputs": [
        {
          "internalType": "uint256",
          "name": "tokenId",
          "type": "uint256"
        }
      ],
      "name": "getApproved",
      "outputs": [
        {
          "internalType": "address",
          "name": "",
          "type": "address"
        }
      ],
      "stateMutability": "view",
      "type": "function"
    },
    {
      "inputs": [
        {
          "internalType": "address",
          "name": "owner",
          "type": "address"
        },
        {
          "internalType": "address",
          "name": "operator",
          "type": "address"
        }
      ],
      "name": "isApprovedForAll",
      "outputs": [
        {
          "internalType": "bool",
          "name": "",
          "type": "bool"
        }
      ],
      "stateMutability": "view",
      "type": "function"
    },
    {
      "inputs": [
        {
          "internalType": "address",
          "name": "recipient",
          "type": "address"
        },
        {
          "internalType": "uint256",
          "name": "tokenId",
          "type": "uint256"
        },
        {
          "internalType": "string",
          "name": "tokenURI",
          "type": "string"
        }
      ],
      "name": "mintNFT",
      "outputs": [
        {
          "internalType": "uint256",
          "name": "",
          "type": "uint256"
        }
      ],
      "stateMutability": "nonpayable",
      "type": "function"
    },
    {
      "inputs": [],
      "name": "name",
      "outputs": [
        {
          "internalType": "string",
          "name": "",
          "type": "string"
        }
      ],
      "stateMutability": "view",
      "type": "function"
    },
    {
      "inputs": [],
      "name": "owner",
      "outputs": [
        {
          "internalType": "address",
          "name": "",
          "type": "address"
        }
      ],
      "stateMutability": "view",
      "type": "function"
    },
    {
      "inputs": [
        {
          "internalType": "uint256",
          "name": "tokenId",
          "type": "uint256"
        }
      ],
      "name": "ownerOf",
      "outputs": [
        {
          "internalType": "address",
          "name": "",
          "type": "address"
        }
      ],
      "stateMutability": "view",
      "type": "function"
    },
    {
      "inputs": [],
      "name": "renounceOwnership",
      "outputs": [],
      "stateMutability": "nonpayable",
      "type": "function"
    },
    {
      "inputs": [
        {
          "internalType": "address",
          "name": "from",
          "type": "address"
        },
        {
          "internalType": "address",
          "name": "to",
          "type": "address"
        },
        {
          "internalType": "uint256",
          "name": "tokenId",
          "type": "uint256"
        }
      ],
      "name": "safeTransferFrom",
      "outputs": [],
      "stateMutability": "nonpayable",
      "type": "function"
    },
    {
      "inputs": [
        {
          "internalType": "address",
          "name": "from",
          "type": "address"
        },
        {
          "internalType": "address",
          "name": "to",
          "type": "address"
        },
        {
          "internalType": "uint256",
          "name": "tokenId",
          "type": "uint256"
        },
        {
          "internalType": "bytes",
          "name": "data",
          "type": "bytes"
        }
      ],
      "name": "safeTransferFrom",
      "outputs": [],
      "stateMutability": "nonpayable",
      "type": "function"
    },
    {
      "inputs": [
        {
          "internalType": "address",
          "name": "operator",
          "type": "address"
        },
        {
          "internalType": "bool",
          "name": "approved",
          "type": "bool"
        }
      ],
      "name": "setApprovalForAll",
      "outputs": [],
      "stateMutability": "nonpayable",
      "type": "function"
    },
    {
      "inputs": [
        {
          "internalType": "bytes4",
          "name": "interfaceId",
          "type": "bytes4"
        }
      ],
      "name": "supportsInterface",
      "outputs": [
        {
          "internalType": "bool",
          "name": "",
          "type": "bool"
        }
      ],
      "stateMutability": "view",
      "type": "function"
    },
    {
      "inputs": [],
      "name": "symbol",
      "outputs": [
        {
          "internalType": "string",
          "name": "",
          "type": "string"
        }
      ],
      "stateMutability": "view",
      "type": "function"
    },
    {
      "inputs": [],
      "name": "tokenCounter",
      "outputs": [
        {
          "internalType": "uint256",
          "name": "",
          "type": "uint256"
        }
      ],
      "stateMutability": "view",
      "type": "function"
    },
    {
      "inputs": [
        {
          "internalType": "uint256",
          "name": "tokenId",
          "type": "uint256"
        }
      ],
      "name": "tokenURI",
      "outputs": [
        {
          "internalType": "string",
          "name": "",
          "type": "string"
        }
      ],
      "stateMutability": "view",
      "type": "function"
    },
    {
      "inputs": [
        {
          "internalType": "address",
          "name": "from",
          "type": "address"
        },
        {
          "internalType": "address",
          "name": "to",
          "type": "address"
        },
        {
          "internalType": "uint256",
          "name": "tokenId",
          "type": "uint256"
        }
      ],
      "name": "transferFrom",
      "outputs": [],
      "stateMutability": "nonpayable",
      "type": "function"
    },
    {
      "inputs": [
        {
          "internalType": "address",
          "name": "newOwner",
          "type": "address"
        }
      ],
      "name": "transferOwnership",
      "outputs": [],
      "stateMutability": "nonpayable",
      "type": "function"
    }
  ],
  "bytecode": "0x60806040523480156200001157600080fd5b50604051620031cf380380620031cf833981810160405281019062000037919062000290565b806040518060400160405280600f81526020017f417274436f6c6c65637469626c657300000000000000000000000000000000008152506040518060400160405280600381526020017f41525400000000000000000000000000000000000000000000000000000000008152508160009081620000b591906200053c565b508060019081620000c791906200053c565b505050600073ffffffffffffffffffffffffffffffffffffffff168173ffffffffffffffffffffffffffffffffffffffff16036200013f5760006040517f1e4fbdf700000000000000000000000000000000000000000000000000000000815260040162000136919062000634565b60405180910390fd5b62000150816200016060201b60201c565b5060006008819055505062000651565b6000600760009054906101000a900473ffffffffffffffffffffffffffffffffffffffff16905081600760006101000a81548173ffffffffffffffffffffffffffffffffffffffff021916908373ffffffffffffffffffffffffffffffffffffffff1602179055508173ffffffffffffffffffffffffffffffffffffffff168173ffffffffffffffffffffffffffffffffffffffff167f8be0079c531659141344cd1fd0a4f28419497f9722a3daafe3b4186f6b6457e060405160405180910390a35050565b600080fd5b600073ffffffffffffffffffffffffffffffffffffffff82169050919050565b600062000258826200022b565b9050919050565b6200026a816200024b565b81146200027657600080fd5b50565b6000815190506200028a816200025f565b92915050565b600060208284031215620002a957620002a862000226565b5b6000620002b98482850162000279565b91505092915050565b600081519050919050565b7f4e487b7100000000000000000000000000000000000000000000000000000000600052604160045260246000fd5b7f4e487b7100000000000000000000000000000000000000000000000000000000600052602260045260246000fd5b600060028204905060018216806200034457607f821691505b6020821081036200035a5762000359620002fc565b5b50919050565b60008190508160005260206000209050919050565b60006020601f8301049050919050565b600082821b905092915050565b600060088302620003c47fffffffffffffffffffffffffffffffffffffffffffffffffffffffffffffffff8262000385565b620003d0868362000385565b95508019841693508086168417925050509392505050565b6000819050919050565b6000819050919050565b60006200041d620004176200041184620003e8565b620003f2565b620003e8565b9050919050565b6000819050919050565b6200043983620003fc565b62000451620004488262000424565b84845462000392565b825550505050565b600090565b6200046862000459565b620004758184846200042e565b505050565b5b818110156200049d57620004916000826200045e565b6001810190506200047b565b5050565b601f821115620004ec57620004b68162000360565b620004c18462000375565b81016020851015620004d1578190505b620004e9620004e08562000375565b8301826200047a565b50505b505050565b600082821c905092915050565b60006200051160001984600802620004f1565b1980831691505092915050565b60006200052c8383620004fe565b9150826002028217905092915050565b6200054782620002c2565b67ffffffffffffffff811115620005635762000562620002cd565b5b6200056f82546200032b565b6200057c828285620004a1565b600060209050601f831160018114620005b457600084156200059f578287015190505b620005ab85826200051e565b8655506200061b565b601f198416620005c48662000360565b60005b82811015620005ee57848901518255600182019150602085019450602081019050620005c7565b868310156200060e57848901516200060a601f891682620004fe565b8355505b6001600288020188555050505b505050505050565b6200062e816200024b565b82525050565b60006020820190506200064b600083018462000623565b92915050565b612b6e80620006616000396000f3fe608060405234801561001057600080fd5b50600436106101165760003560e01c8063715018a6116100a2578063b88d4fde11610071578063b88d4fde146102df578063c87b56dd146102fb578063d082e3811461032b578063e985e9c514610349578063f2fde38b1461037957610116565b8063715018a61461027d5780638da5cb5b1461028757806395d89b41146102a5578063a22cb465146102c357610116565b80631e576912116100e95780631e576912146101b557806323b872dd146101e557806342842e0e146102015780636352211e1461021d57806370a082311461024d57610116565b806301ffc9a71461011b57806306fdde031461014b578063081812fc14610169578063095ea7b314610199575b600080fd5b61013560048036038101906101309190611d8d565b610395565b6040516101429190611dd5565b60405180910390f35b6101536103f6565b6040516101609190611e80565b60405180910390f35b610183600480360381019061017e9190611ed8565b610488565b6040516101909190611f46565b60405180910390f35b6101b360048036038101906101ae9190611f8d565b6104a4565b005b6101cf60048036038101906101ca9190612102565b6104ba565b6040516101dc9190612180565b60405180910390f35b6101ff60048036038101906101fa919061219b565b610624565b005b61021b6004803603810190610216919061219b565b610726565b005b61023760048036038101906102329190611ed8565b610746565b6040516102449190611f46565b60405180910390f35b610267600480360381019061026291906121ee565b610758565b6040516102749190612180565b60405180910390f35b610285610812565b005b61028f610826565b60405161029c9190611f46565b60405180910390f35b6102ad610850565b6040516102ba9190611e80565b60405180910390f35b6102dd60048036038101906102d89190612247565b6108e2565b005b6102f960048036038101906102f49190612328565b6108f8565b005b61031560048036038101906103109190611ed8565b61091d565b6040516103229190611e80565b60405180910390f35b610333610a30565b6040516103409190612180565b60405180910390f35b610363600480360381019061035e91906123ab565b610a36565b6040516103709190611dd5565b60405180910390f35b610393600480360381019061038e91906121ee565b610aca565b005b6000634906490660e01b7bffffffffffffffffffffffffffffffffffffffffffffffffffffffff1916827bffffffffffffffffffffffffffffffffffffffffffffffffffffffff191614806103ef57506103ee82610b50565b5b9050919050565b6060600080546104059061241a565b80601f01602080910402602001604051908101604052809291908181526020018280546104319061241a565b801561047e5780601f106104535761010080835404028352916020019161047e565b820191906000526020600020905b81548152906001019060200180831161046157829003601f168201915b5050505050905090565b600061049382610c32565b5061049d82610cba565b9050919050565b6104b682826104b1610cf7565b610cff565b5050565b60006009826040516104cc9190612487565b908152602001604051809103902060009054906101000a900460ff1615610528576040517f08c379a000000000000000000000000000000000000000000000000000000000815260040161051f906124ea565b60405180910390fd5b600061053384610d11565b5111610574576040517f08c379a000000000000000000000000000000000000000000000000000000000815260040161056b90612556565b60405180910390fd5b600060085490506105858582610e71565b61058f8184610e8f565b60016009846040516105a19190612487565b908152602001604051809103902060006101000a81548160ff021916908315150217905550600860008154809291906105d9906125a5565b91905055507fd35bb95e09c04b219e35047ce7b7b300e3384264ef84a40456943dbc0fc17c14858285604051610611939291906125ed565b60405180910390a1809150509392505050565b600073ffffffffffffffffffffffffffffffffffffffff168273ffffffffffffffffffffffffffffffffffffffff16036106965760006040517f64a0ae9200000000000000000000000000000000000000000000000000000000815260040161068d9190611f46565b60405180910390fd5b60006106aa83836106a5610cf7565b610eeb565b90508373ffffffffffffffffffffffffffffffffffffffff168173ffffffffffffffffffffffffffffffffffffffff1614610720578382826040517f64283d7b0000000000000000000000000000000000000000000000000000000081526004016107179392919061262b565b60405180910390fd5b50505050565b610741838383604051806020016040528060008152506108f8565b505050565b600061075182610c32565b9050919050565b60008073ffffffffffffffffffffffffffffffffffffffff168273ffffffffffffffffffffffffffffffffffffffff16036107cb5760006040517f89c62b640000000000000000000000000000000000000000000000000000000081526004016107c29190611f46565b60405180910390fd5b600360008373ffffffffffffffffffffffffffffffffffffffff1673ffffffffffffffffffffffffffffffffffffffff168152602001908152602001600020549050919050565b61081a611105565b610824600061118c565b565b6000600760009054906101000a900473ffffffffffffffffffffffffffffffffffffffff16905090565b60606001805461085f9061241a565b80601f016020809104026020016040519081016040528092919081815260200182805461088b9061241a565b80156108d85780601f106108ad576101008083540402835291602001916108d8565b820191906000526020600020905b8154815290600101906020018083116108bb57829003601f168201915b5050505050905090565b6108f46108ed610cf7565b8383611252565b5050565b610903848484610624565b61091761090e610cf7565b858585856113c1565b50505050565b606061092882610c32565b5060006006600084815260200190815260200160002080546109499061241a565b80601f01602080910402602001604051908101604052809291908181526020018280546109759061241a565b80156109c25780601f10610997576101008083540402835291602001916109c2565b820191906000526020600020905b8154815290600101906020018083116109a557829003601f168201915b5050505050905060006109d3611572565b905060008151036109e8578192505050610a2b565b600082511115610a1d578082604051602001610a05929190612662565b60405160208183030381529060405292505050610a2b565b610a2684611589565b925050505b919050565b60085481565b6000600560008473ffffffffffffffffffffffffffffffffffffffff1673ffffffffffffffffffffffffffffffffffffffff16815260200190815260200160002060008373ffffffffffffffffffffffffffffffffffffffff1673ffffffffffffffffffffffffffffffffffffffff16815260200190815260200160002060009054906101000a900460ff16905092915050565b610ad2611105565b600073ffffffffffffffffffffffffffffffffffffffff168173ffffffffffffffffffffffffffffffffffffffff1603610b445760006040517f1e4fbdf7000000000000000000000000000000000000000000000000000000008152600401610b3b9190611f46565b60405180910390fd5b610b4d8161118c565b50565b60007f80ac58cd000000000000000000000000000000000000000000000000000000007bffffffffffffffffffffffffffffffffffffffffffffffffffffffff1916827bffffffffffffffffffffffffffffffffffffffffffffffffffffffff19161480610c1b57507f5b5e139f000000000000000000000000000000000000000000000000000000007bffffffffffffffffffffffffffffffffffffffffffffffffffffffff1916827bffffffffffffffffffffffffffffffffffffffffffffffffffffffff1916145b80610c2b5750610c2a826115f2565b5b9050919050565b600080610c3e8361165c565b9050600073ffffffffffffffffffffffffffffffffffffffff168173ffffffffffffffffffffffffffffffffffffffff1603610cb157826040517f7e273289000000000000000000000000000000000000000000000000000000008152600401610ca89190612180565b60405180910390fd5b80915050919050565b60006004600083815260200190815260200160002060009054906101000a900473ffffffffffffffffffffffffffffffffffffffff169050919050565b600033905090565b610d0c8383836001611699565b505050565b606060008203610d58576040518060400160405280600181526020017f30000000000000000000000000000000000000000000000000000000000000008152509050610e6c565b600082905060005b60008214610d8a578080610d73906125a5565b915050600a82610d8391906126b5565b9150610d60565b60008167ffffffffffffffff811115610da657610da5611fd7565b5b6040519080825280601f01601f191660200182016040528015610dd85781602001600182028036833780820191505090505b5090505b60008514610e6557600182610df191906126e6565b9150600a85610e00919061271a565b6030610e0c919061274b565b60f81b818381518110610e2257610e2161277f565b5b60200101907effffffffffffffffffffffffffffffffffffffffffffffffffffffffffffff1916908160001a905350600a85610e5e91906126b5565b9450610ddc565b8093505050505b919050565b610e8b82826040518060200160405280600081525061185e565b5050565b80600660008481526020019081526020016000209081610eaf919061295a565b507ff8e1a15aba9398e019f0b49df1a4fde98ee17ae345cb5f6b5e2c27f5033e8ce782604051610edf9190612180565b60405180910390a15050565b600080610ef78461165c565b9050600073ffffffffffffffffffffffffffffffffffffffff168373ffffffffffffffffffffffffffffffffffffffff1614610f3957610f38818486611882565b5b600073ffffffffffffffffffffffffffffffffffffffff168173ffffffffffffffffffffffffffffffffffffffff1614610fca57610f7b600085600080611699565b6001600360008373ffffffffffffffffffffffffffffffffffffffff1673ffffffffffffffffffffffffffffffffffffffff168152602001908152602001600020600082825403925050819055505b600073ffffffffffffffffffffffffffffffffffffffff168573ffffffffffffffffffffffffffffffffffffffff161461104d576001600360008773ffffffffffffffffffffffffffffffffffffffff1673ffffffffffffffffffffffffffffffffffffffff168152602001908152602001600020600082825401925050819055505b846002600086815260200190815260200160002060006101000a81548173ffffffffffffffffffffffffffffffffffffffff021916908373ffffffffffffffffffffffffffffffffffffffff160217905550838573ffffffffffffffffffffffffffffffffffffffff168273ffffffffffffffffffffffffffffffffffffffff167fddf252ad1be2c89b69c2b068fc378daa952ba7f163c4a11628f55a4df523b3ef60405160405180910390a4809150509392505050565b61110d610cf7565b73ffffffffffffffffffffffffffffffffffffffff1661112b610826565b73ffffffffffffffffffffffffffffffffffffffff161461118a5761114e610cf7565b6040517f118cdaa70000000000000000000000000000000000000000000000000000000081526004016111819190611f46565b60405180910390fd5b565b6000600760009054906101000a900473ffffffffffffffffffffffffffffffffffffffff16905081600760006101000a81548173ffffffffffffffffffffffffffffffffffffffff021916908373ffffffffffffffffffffffffffffffffffffffff1602179055508173ffffffffffffffffffffffffffffffffffffffff168173ffffffffffffffffffffffffffffffffffffffff167f8be0079c531659141344cd1fd0a4f28419497f9722a3daafe3b4186f6b6457e060405160405180910390a35050565b600073ffffffffffffffffffffffffffffffffffffffff168273ffffffffffffffffffffffffffffffffffffffff16036112c357816040517f5b08ba180000000000000000000000000000000000000000000000000000000081526004016112ba9190611f46565b60405180910390fd5b80600560008573ffffffffffffffffffffffffffffffffffffffff1673ffffffffffffffffffffffffffffffffffffffff16815260200190815260200160002060008473ffffffffffffffffffffffffffffffffffffffff1673ffffffffffffffffffffffffffffffffffffffff16815260200190815260200160002060006101000a81548160ff0219169083151502179055508173ffffffffffffffffffffffffffffffffffffffff168373ffffffffffffffffffffffffffffffffffffffff167f17307eab39ab6107e8899845ad3d59bd9653f200f220920489ca2b5937696c31836040516113b49190611dd5565b60405180910390a3505050565b60008373ffffffffffffffffffffffffffffffffffffffff163b111561156b578273ffffffffffffffffffffffffffffffffffffffff1663150b7a02868685856040518563ffffffff1660e01b81526004016114209493929190612a81565b6020604051808303816000875af192505050801561145c57506040513d601f19601f820116820180604052508101906114599190612ae2565b60015b6114e0573d806000811461148c576040519150601f19603f3d011682016040523d82523d6000602084013e611491565b606091505b5060008151036114d857836040517f64a0ae920000000000000000000000000000000000000000000000000000000081526004016114cf9190611f46565b60405180910390fd5b805181602001fd5b63150b7a0260e01b7bffffffffffffffffffffffffffffffffffffffffffffffffffffffff1916817bffffffffffffffffffffffffffffffffffffffffffffffffffffffff19161461156957836040517f64a0ae920000000000000000000000000000000000000000000000000000000081526004016115609190611f46565b60405180910390fd5b505b5050505050565b606060405180602001604052806000815250905090565b606061159482610c32565b50600061159f611572565b905060008151116115bf57604051806020016040528060008152506115ea565b806115c984611946565b6040516020016115da929190612662565b6040516020818303038152906040525b915050919050565b60007f01ffc9a7000000000000000000000000000000000000000000000000000000007bffffffffffffffffffffffffffffffffffffffffffffffffffffffff1916827bffffffffffffffffffffffffffffffffffffffffffffffffffffffff1916149050919050565b60006002600083815260200190815260200160002060009054906101000a900473ffffffffffffffffffffffffffffffffffffffff169050919050565b80806116d25750600073ffffffffffffffffffffffffffffffffffffffff168273ffffffffffffffffffffffffffffffffffffffff1614155b156118065760006116e284610c32565b9050600073ffffffffffffffffffffffffffffffffffffffff168373ffffffffffffffffffffffffffffffffffffffff161415801561174d57508273ffffffffffffffffffffffffffffffffffffffff168173ffffffffffffffffffffffffffffffffffffffff1614155b8015611760575061175e8184610a36565b155b156117a257826040517fa9fbf51f0000000000000000000000000000000000000000000000000000000081526004016117999190611f46565b60405180910390fd5b811561180457838573ffffffffffffffffffffffffffffffffffffffff168273ffffffffffffffffffffffffffffffffffffffff167f8c5be1e5ebec7d5bd14f71427d1e84f3dd0314c0f7b2291e5b200ac8c7c3b92560405160405180910390a45b505b836004600085815260200190815260200160002060006101000a81548173ffffffffffffffffffffffffffffffffffffffff021916908373ffffffffffffffffffffffffffffffffffffffff16021790555050505050565b6118688383611a14565b61187d611873610cf7565b60008585856113c1565b505050565b61188d838383611b0d565b61194157600073ffffffffffffffffffffffffffffffffffffffff168373ffffffffffffffffffffffffffffffffffffffff160361190257806040517f7e2732890000000000000000000000000000000000000000000000000000000081526004016118f99190612180565b60405180910390fd5b81816040517f177e802f000000000000000000000000000000000000000000000000000000008152600401611938929190612b0f565b60405180910390fd5b505050565b60606000600161195584611bce565b01905060008167ffffffffffffffff81111561197457611973611fd7565b5b6040519080825280601f01601f1916602001820160405280156119a65781602001600182028036833780820191505090505b509050600082602001820190505b600115611a09578080600190039150507f3031323334353637383961626364656600000000000000000000000000000000600a86061a8153600a85816119fd576119fc612686565b5b049450600085036119b4575b819350505050919050565b600073ffffffffffffffffffffffffffffffffffffffff168273ffffffffffffffffffffffffffffffffffffffff1603611a865760006040517f64a0ae92000000000000000000000000000000000000000000000000000000008152600401611a7d9190611f46565b60405180910390fd5b6000611a9483836000610eeb565b9050600073ffffffffffffffffffffffffffffffffffffffff168173ffffffffffffffffffffffffffffffffffffffff1614611b085760006040517f73c6ac6e000000000000000000000000000000000000000000000000000000008152600401611aff9190611f46565b60405180910390fd5b505050565b60008073ffffffffffffffffffffffffffffffffffffffff168373ffffffffffffffffffffffffffffffffffffffff1614158015611bc557508273ffffffffffffffffffffffffffffffffffffffff168473ffffffffffffffffffffffffffffffffffffffff161480611b865750611b858484610a36565b5b80611bc457508273ffffffffffffffffffffffffffffffffffffffff16611bac83610cba565b73ffffffffffffffffffffffffffffffffffffffff16145b5b90509392505050565b600080600090507a184f03e93ff9f4daa797ed6e38ed64bf6a1f0100000000000000008310611c2c577a184f03e93ff9f4daa797ed6e38ed64bf6a1f0100000000000000008381611c2257611c21612686565b5b0492506040810190505b6d04ee2d6d415b85acef81000000008310611c69576d04ee2d6d415b85acef81000000008381611c5f57611c5e612686565b5b0492506020810190505b662386f26fc100008310611c9857662386f26fc100008381611c8e57611c8d612686565b5b0492506010810190505b6305f5e1008310611cc1576305f5e1008381611cb757611cb6612686565b5b0492506008810190505b6127108310611ce6576127108381611cdc57611cdb612686565b5b0492506004810190505b60648310611d095760648381611cff57611cfe612686565b5b0492506002810190505b600a8310611d18576001810190505b80915050919050565b6000604051905090565b600080fd5b600080fd5b60007fffffffff0000000000000000000000000000000000000000000000000000000082169050919050565b611d6a81611d35565b8114611d7557600080fd5b50565b600081359050611d8781611d61565b92915050565b600060208284031215611da357611da2611d2b565b5b6000611db184828501611d78565b91505092915050565b60008115159050919050565b611dcf81611dba565b82525050565b6000602082019050611dea6000830184611dc6565b92915050565b600081519050919050565b600082825260208201905092915050565b60005b83811015611e2a578082015181840152602081019050611e0f565b60008484015250505050565b6000601f19601f8301169050919050565b6000611e5282611df0565b611e5c8185611dfb565b9350611e6c818560208601611e0c565b611e7581611e36565b840191505092915050565b60006020820190508181036000830152611e9a8184611e47565b905092915050565b6000819050919050565b611eb581611ea2565b8114611ec057600080fd5b50565b600081359050611ed281611eac565b92915050565b600060208284031215611eee57611eed611d2b565b5b6000611efc84828501611ec3565b91505092915050565b600073ffffffffffffffffffffffffffffffffffffffff82169050919050565b6000611f3082611f05565b9050919050565b611f4081611f25565b82525050565b6000602082019050611f5b6000830184611f37565b92915050565b611f6a81611f25565b8114611f7557600080fd5b50565b600081359050611f8781611f61565b92915050565b60008060408385031215611fa457611fa3611d2b565b5b6000611fb285828601611f78565b9250506020611fc385828601611ec3565b9150509250929050565b600080fd5b600080fd5b7f4e487b7100000000000000000000000000000000000000000000000000000000600052604160045260246000fd5b61200f82611e36565b810181811067ffffffffffffffff8211171561202e5761202d611fd7565b5b80604052505050565b6000612041611d21565b905061204d8282612006565b919050565b600067ffffffffffffffff82111561206d5761206c611fd7565b5b61207682611e36565b9050602081019050919050565b82818337600083830152505050565b60006120a56120a084612052565b612037565b9050828152602081018484840111156120c1576120c0611fd2565b5b6120cc848285612083565b509392505050565b600082601f8301126120e9576120e8611fcd565b5b81356120f9848260208601612092565b91505092915050565b60008060006060848603121561211b5761211a611d2b565b5b600061212986828701611f78565b935050602061213a86828701611ec3565b925050604084013567ffffffffffffffff81111561215b5761215a611d30565b5b612167868287016120d4565b9150509250925092565b61217a81611ea2565b82525050565b60006020820190506121956000830184612171565b92915050565b6000806000606084860312156121b4576121b3611d2b565b5b60006121c286828701611f78565b93505060206121d386828701611f78565b92505060406121e486828701611ec3565b9150509250925092565b60006020828403121561220457612203611d2b565b5b600061221284828501611f78565b91505092915050565b61222481611dba565b811461222f57600080fd5b50565b6000813590506122418161221b565b92915050565b6000806040838503121561225e5761225d611d2b565b5b600061226c85828601611f78565b925050602061227d85828601612232565b9150509250929050565b600067ffffffffffffffff8211156122a2576122a1611fd7565b5b6122ab82611e36565b9050602081019050919050565b60006122cb6122c684612287565b612037565b9050828152602081018484840111156122e7576122e6611fd2565b5b6122f2848285612083565b509392505050565b600082601f83011261230f5761230e611fcd565b5b813561231f8482602086016122b8565b91505092915050565b6000806000806080858703121561234257612341611d2b565b5b600061235087828801611f78565b945050602061236187828801611f78565b935050604061237287828801611ec3565b925050606085013567ffffffffffffffff81111561239357612392611d30565b5b61239f878288016122fa565b91505092959194509250565b600080604083850312156123c2576123c1611d2b565b5b60006123d085828601611f78565b92505060206123e185828601611f78565b9150509250929050565b7f4e487b7100000000000000000000000000000000000000000000000000000000600052602260045260246000fd5b6000600282049050600182168061243257607f821691505b602082108103612445576124446123eb565b5b50919050565b600081905092915050565b600061246182611df0565b61246b818561244b565b935061247b818560208601611e0c565b80840191505092915050565b60006124938284612456565b915081905092915050565b7f546f6b656e2055524920616c7265616479207573656400000000000000000000600082015250565b60006124d4601683611dfb565b91506124df8261249e565b602082019050919050565b60006020820190508181036000830152612503816124c7565b9050919050565b7f496e76616c696420746f6b656e20494400000000000000000000000000000000600082015250565b6000612540601083611dfb565b915061254b8261250a565b602082019050919050565b6000602082019050818103600083015261256f81612533565b9050919050565b7f4e487b7100000000000000000000000000000000000000000000000000000000600052601160045260246000fd5b60006125b082611ea2565b91507fffffffffffffffffffffffffffffffffffffffffffffffffffffffffffffffff82036125e2576125e1612576565b5b600182019050919050565b60006060820190506126026000830186611f37565b61260f6020830185612171565b81810360408301526126218184611e47565b9050949350505050565b60006060820190506126406000830186611f37565b61264d6020830185612171565b61265a6040830184611f37565b949350505050565b600061266e8285612456565b915061267a8284612456565b91508190509392505050565b7f4e487b7100000000000000000000000000000000000000000000000000000000600052601260045260246000fd5b60006126c082611ea2565b91506126cb83611ea2565b9250826126db576126da612686565b5b828204905092915050565b60006126f182611ea2565b91506126fc83611ea2565b925082820390508181111561271457612713612576565b5b92915050565b600061272582611ea2565b915061273083611ea2565b9250826127405761273f612686565b5b828206905092915050565b600061275682611ea2565b915061276183611ea2565b925082820190508082111561277957612778612576565b5b92915050565b7f4e487b7100000000000000000000000000000000000000000000000000000000600052603260045260246000fd5b60008190508160005260206000209050919050565b60006020601f8301049050919050565b600082821b905092915050565b6000600883026128107fffffffffffffffffffffffffffffffffffffffffffffffffffffffffffffffff826127d3565b61281a86836127d3565b95508019841693508086168417925050509392505050565b6000819050919050565b600061285761285261284d84611ea2565b612832565b611ea2565b9050919050565b6000819050919050565b6128718361283c565b61288561287d8261285e565b8484546127e0565b825550505050565b600090565b61289a61288d565b6128a5818484612868565b505050565b5b818110156128c9576128be600082612892565b6001810190506128ab565b5050565b601f82111561290e576128df816127ae565b6128e8846127c3565b810160208510156128f7578190505b61290b612903856127c3565b8301826128aa565b50505b505050565b600082821c905092915050565b600061293160001984600802612913565b1980831691505092915050565b600061294a8383612920565b9150826002028217905092915050565b61296382611df0565b67ffffffffffffffff81111561297c5761297b611fd7565b5b612986825461241a565b6129918282856128cd565b600060209050601f8311600181146129c457600084156129b2578287015190505b6129bc858261293e565b865550612a24565b601f1984166129d2866127ae565b60005b828110156129fa578489015182556001820191506020850194506020810190506129d5565b86831015612a175784890151612a13601f891682612920565b8355505b6001600288020188555050505b505050505050565b600081519050919050565b600082825260208201905092915050565b6000612a5382612a2c565b612a5d8185612a37565b9350612a6d818560208601611e0c565b612a7681611e36565b840191505092915050565b6000608082019050612a966000830187611f37565b612aa36020830186611f37565b612ab06040830185612171565b8181036060830152612ac28184612a48565b905095945050505050565b600081519050612adc81611d61565b92915050565b600060208284031215612af857612af7611d2b565b5b6000612b0684828501612acd565b91505092915050565b6000604082019050612b246000830185611f37565b612b316020830184612171565b939250505056fea2646970667358221220cacb450cc41bf184f67f0996b93bdcf8c2fec05740c0c256f0aa727fe3e52f6864736f6c63430008180033",
  "linkReferences": {},
  "deployedLinkReferences": {}
}