{
  "_format": "hh-sol-artifact-1",
  "contractName": "MyNFT",
  "sourceName": "contracts/test.sol",
  "abi": [
    {
      "inputs": [
        {
          "internalType": "address",
          "name": "initialOwner",
          "type": "address"
        }
      ],
      "stateMutability": "nonpayable",
      "type": "constructor"
    },
    {
      "inputs": [
        {
          "internalType": "address",
          "name": "sender",
          "type": "address"
        },
        {
          "internalType": "uint256",
          "name": "tokenId",
          "type": "uint256"
        },
        {
          "internalType": "address",
          "name": "owner",
          "type": "address"
        }
      ],
      "name": "ERC721IncorrectOwner",
      "type": "error"
    },
    {
      "inputs": [
        {
          "internalType": "address",
          "name": "operator",
          "type": "address"
        },
        {
          "internalType": "uint256",
          "name": "tokenId",
          "type": "uint256"
        }
      ],
      "name": "ERC721InsufficientApproval",
      "type": "error"
    },
    {
      "inputs": [
        {
          "internalType": "address",
          "name": "approver",
          "type": "address"
        }
      ],
      "name": "ERC721InvalidApprover",
      "type": "error"
    },
    {
      "inputs": [
        {
          "internalType": "address",
          "name": "operator",
          "type": "address"
        }
      ],
      "name": "ERC721InvalidOperator",
      "type": "error"
    },
    {
      "inputs": [
        {
          "internalType": "address",
          "name": "owner",
          "type": "address"
        }
      ],
      "name": "ERC721InvalidOwner",
      "type": "error"
    },
    {
      "inputs": [
        {
          "internalType": "address",
          "name": "receiver",
          "type": "address"
        }
      ],
      "name": "ERC721InvalidReceiver",
      "type": "error"
    },
    {
      "inputs": [
        {
          "internalType": "address",
          "name": "sender",
          "type": "address"
        }
      ],
      "name": "ERC721InvalidSender",
      "type": "error"
    },
    {
      "inputs": [
        {
          "internalType": "uint256",
          "name": "tokenId",
          "type": "uint256"
        }
      ],
      "name": "ERC721NonexistentToken",
      "type": "error"
    },
    {
      "inputs": [
        {
          "internalType": "address",
          "name": "owner",
          "type": "address"
        }
      ],
      "name": "OwnableInvalidOwner",
      "type": "error"
    },
    {
      "inputs": [
        {
          "internalType": "address",
          "name": "account",
          "type": "address"
        }
      ],
      "name": "OwnableUnauthorizedAccount",
      "type": "error"
    },
    {
      "anonymous": false,
      "inputs": [
        {
          "indexed": true,
          "internalType": "address",
          "name": "owner",
          "type": "address"
        },
        {
          "indexed": true,
          "internalType": "address",
          "name": "approved",
          "type": "address"
        },
        {
          "indexed": true,
          "internalType": "uint256",
          "name": "tokenId",
          "type": "uint256"
        }
      ],
      "name": "Approval",
      "type": "event"
    },
    {
      "anonymous": false,
      "inputs": [
        {
          "indexed": true,
          "internalType": "address",
          "name": "owner",
          "type": "address"
        },
        {
          "indexed": true,
          "internalType": "address",
          "name": "operator",
          "type": "address"
        },
        {
          "indexed": false,
          "internalType": "bool",
          "name": "approved",
          "type": "bool"
        }
      ],
      "name": "ApprovalForAll",
      "type": "event"
    },
    {
      "anonymous": false,
      "inputs": [
        {
          "indexed": false,
          "internalType": "uint256",
          "name": "_fromTokenId",
          "type": "uint256"
        },
        {
          "indexed": false,
          "internalType": "uint256",
          "name": "_toTokenId",
          "type": "uint256"
        }
      ],
      "name": "BatchMetadataUpdate",
      "type": "event"
    },
    {
      "anonymous": false,
      "inputs": [
        {
          "indexed": false,
          "internalType": "uint256",
          "name": "_tokenId",
          "type": "uint256"
        }
      ],
      "name": "MetadataUpdate",
      "type": "event"
    },
    {
      "anonymous": false,
      "inputs": [
        {
          "indexed": true,
          "internalType": "address",
          "name": "previousOwner",
          "type": "address"
        },
        {
          "indexed": true,
          "internalType": "address",
          "name": "newOwner",
          "type": "address"
        }
      ],
      "name": "OwnershipTransferred",
      "type": "event"
    },
    {
      "anonymous": false,
      "inputs": [
        {
          "indexed": true,
          "internalType": "address",
          "name": "from",
          "type": "address"
        },
        {
          "indexed": true,
          "internalType": "address",
          "name": "to",
          "type": "address"
        },
        {
          "indexed": true,
          "internalType": "uint256",
          "name": "tokenId",
          "type": "uint256"
        }
      ],
      "name": "Transfer",
      "type": "event"
    },
    {
      "inputs": [
        {
          "internalType": "address",
          "name": "to",
          "type": "address"
        },
        {
          "internalType": "uint256",
          "name": "tokenId",
          "type": "uint256"
        }
      ],
      "name": "approve",
      "outputs": [],
      "stateMutability": "nonpayable",
      "type": "function"
    },
    {
      "inputs": [
        {
          "internalType": "address",
          "name": "owner",
          "type": "address"
        }
      ],
      "name": "balanceOf",
      "outputs": [
        {
          "internalType": "uint256",
          "name": "",
          "type": "uint256"
        }
      ],
      "stateMutability": "view",
      "type": "function"
    },
    {
      "inputs": [
        {
          "internalType": "uint256",
          "name": "tokenId",
          "type": "uint256"
        }
      ],
      "name": "getApproved",
      "outputs": [
        {
          "internalType": "address",
          "name": "",
          "type": "address"
        }
      ],
      "stateMutability": "view",
      "type": "function"
    },
    {
      "inputs": [
        {
          "internalType": "address",
          "name": "owner",
          "type": "address"
        },
        {
          "internalType": "address",
          "name": "operator",
          "type": "address"
        }
      ],
      "name": "isApprovedForAll",
      "outputs": [
        {
          "internalType": "bool",
          "name": "",
          "type": "bool"
        }
      ],
      "stateMutability": "view",
      "type": "function"
    },
    {
      "inputs": [
        {
          "internalType": "address",
          "name": "recipient",
          "type": "address"
        },
        {
          "internalType": "string",
          "name": "tokenURI",
          "type": "string"
        }
      ],
      "name": "mintNFT",
      "outputs": [
        {
          "internalType": "uint256",
          "name": "",
          "type": "uint256"
        }
      ],
      "stateMutability": "nonpayable",
      "type": "function"
    },
    {
      "inputs": [],
      "name": "name",
      "outputs": [
        {
          "internalType": "string",
          "name": "",
          "type": "string"
        }
      ],
      "stateMutability": "view",
      "type": "function"
    },
    {
      "inputs": [],
      "name": "owner",
      "outputs": [
        {
          "internalType": "address",
          "name": "",
          "type": "address"
        }
      ],
      "stateMutability": "view",
      "type": "function"
    },
    {
      "inputs": [
        {
          "internalType": "uint256",
          "name": "tokenId",
          "type": "uint256"
        }
      ],
      "name": "ownerOf",
      "outputs": [
        {
          "internalType": "address",
          "name": "",
          "type": "address"
        }
      ],
      "stateMutability": "view",
      "type": "function"
    },
    {
      "inputs": [],
      "name": "renounceOwnership",
      "outputs": [],
      "stateMutability": "nonpayable",
      "type": "function"
    },
    {
      "inputs": [
        {
          "internalType": "address",
          "name": "from",
          "type": "address"
        },
        {
          "internalType": "address",
          "name": "to",
          "type": "address"
        },
        {
          "internalType": "uint256",
          "name": "tokenId",
          "type": "uint256"
        }
      ],
      "name": "safeTransferFrom",
      "outputs": [],
      "stateMutability": "nonpayable",
      "type": "function"
    },
    {
      "inputs": [
        {
          "internalType": "address",
          "name": "from",
          "type": "address"
        },
        {
          "internalType": "address",
          "name": "to",
          "type": "address"
        },
        {
          "internalType": "uint256",
          "name": "tokenId",
          "type": "uint256"
        },
        {
          "internalType": "bytes",
          "name": "data",
          "type": "bytes"
        }
      ],
      "name": "safeTransferFrom",
      "outputs": [],
      "stateMutability": "nonpayable",
      "type": "function"
    },
    {
      "inputs": [
        {
          "internalType": "address",
          "name": "operator",
          "type": "address"
        },
        {
          "internalType": "bool",
          "name": "approved",
          "type": "bool"
        }
      ],
      "name": "setApprovalForAll",
      "outputs": [],
      "stateMutability": "nonpayable",
      "type": "function"
    },
    {
      "inputs": [
        {
          "internalType": "bytes4",
          "name": "interfaceId",
          "type": "bytes4"
        }
      ],
      "name": "supportsInterface",
      "outputs": [
        {
          "internalType": "bool",
          "name": "",
          "type": "bool"
        }
      ],
      "stateMutability": "view",
      "type": "function"
    },
    {
      "inputs": [],
      "name": "symbol",
      "outputs": [
        {
          "internalType": "string",
          "name": "",
          "type": "string"
        }
      ],
      "stateMutability": "view",
      "type": "function"
    },
    {
      "inputs": [],
      "name": "tokenCounter",
      "outputs": [
        {
          "internalType": "uint256",
          "name": "",
          "type": "uint256"
        }
      ],
      "stateMutability": "view",
      "type": "function"
    },
    {
      "inputs": [
        {
          "internalType": "uint256",
          "name": "tokenId",
          "type": "uint256"
        }
      ],
      "name": "tokenURI",
      "outputs": [
        {
          "internalType": "string",
          "name": "",
          "type": "string"
        }
      ],
      "stateMutability": "view",
      "type": "function"
    },
    {
      "inputs": [
        {
          "internalType": "address",
          "name": "from",
          "type": "address"
        },
        {
          "internalType": "address",
          "name": "to",
          "type": "address"
        },
        {
          "internalType": "uint256",
          "name": "tokenId",
          "type": "uint256"
        }
      ],
      "name": "transferFrom",
      "outputs": [],
      "stateMutability": "nonpayable",
      "type": "function"
    },
    {
      "inputs": [
        {
          "internalType": "address",
          "name": "newOwner",
          "type": "address"
        }
      ],
      "name": "transferOwnership",
      "outputs": [],
      "stateMutability": "nonpayable",
      "type": "function"
    }
  ],
  "bytecode": "0x60806040523480156200001157600080fd5b5060405162002d2238038062002d22833981810160405281019062000037919062000290565b806040518060400160405280600581526020017f4d794e46540000000000000000000000000000000000000000000000000000008152506040518060400160405280600481526020017f4d4e4654000000000000000000000000000000000000000000000000000000008152508160009081620000b591906200053c565b508060019081620000c791906200053c565b505050600073ffffffffffffffffffffffffffffffffffffffff168173ffffffffffffffffffffffffffffffffffffffff16036200013f5760006040517f1e4fbdf700000000000000000000000000000000000000000000000000000000815260040162000136919062000634565b60405180910390fd5b62000150816200016060201b60201c565b5060006008819055505062000651565b6000600760009054906101000a900473ffffffffffffffffffffffffffffffffffffffff16905081600760006101000a81548173ffffffffffffffffffffffffffffffffffffffff021916908373ffffffffffffffffffffffffffffffffffffffff1602179055508173ffffffffffffffffffffffffffffffffffffffff168173ffffffffffffffffffffffffffffffffffffffff167f8be0079c531659141344cd1fd0a4f28419497f9722a3daafe3b4186f6b6457e060405160405180910390a35050565b600080fd5b600073ffffffffffffffffffffffffffffffffffffffff82169050919050565b600062000258826200022b565b9050919050565b6200026a816200024b565b81146200027657600080fd5b50565b6000815190506200028a816200025f565b92915050565b600060208284031215620002a957620002a862000226565b5b6000620002b98482850162000279565b91505092915050565b600081519050919050565b7f4e487b7100000000000000000000000000000000000000000000000000000000600052604160045260246000fd5b7f4e487b7100000000000000000000000000000000000000000000000000000000600052602260045260246000fd5b600060028204905060018216806200034457607f821691505b6020821081036200035a5762000359620002fc565b5b50919050565b60008190508160005260206000209050919050565b60006020601f8301049050919050565b600082821b905092915050565b600060088302620003c47fffffffffffffffffffffffffffffffffffffffffffffffffffffffffffffffff8262000385565b620003d0868362000385565b95508019841693508086168417925050509392505050565b6000819050919050565b6000819050919050565b60006200041d620004176200041184620003e8565b620003f2565b620003e8565b9050919050565b6000819050919050565b6200043983620003fc565b62000451620004488262000424565b84845462000392565b825550505050565b600090565b6200046862000459565b620004758184846200042e565b505050565b5b818110156200049d57620004916000826200045e565b6001810190506200047b565b5050565b601f821115620004ec57620004b68162000360565b620004c18462000375565b81016020851015620004d1578190505b620004e9620004e08562000375565b8301826200047a565b50505b505050565b600082821c905092915050565b60006200051160001984600802620004f1565b1980831691505092915050565b60006200052c8383620004fe565b9150826002028217905092915050565b6200054782620002c2565b67ffffffffffffffff811115620005635762000562620002cd565b5b6200056f82546200032b565b6200057c828285620004a1565b600060209050601f831160018114620005b457600084156200059f578287015190505b620005ab85826200051e565b8655506200061b565b601f198416620005c48662000360565b60005b82811015620005ee57848901518255600182019150602085019450602081019050620005c7565b868310156200060e57848901516200060a601f891682620004fe565b8355505b6001600288020188555050505b505050505050565b6200062e816200024b565b82525050565b60006020820190506200064b600083018462000623565b92915050565b6126c180620006616000396000f3fe608060405234801561001057600080fd5b50600436106101165760003560e01c80638da5cb5b116100a2578063c87b56dd11610071578063c87b56dd146102cb578063d082e381146102fb578063e985e9c514610319578063eacabe1414610349578063f2fde38b1461037957610116565b80638da5cb5b1461025757806395d89b4114610275578063a22cb46514610293578063b88d4fde146102af57610116565b806323b872dd116100e957806323b872dd146101b557806342842e0e146101d15780636352211e146101ed57806370a082311461021d578063715018a61461024d57610116565b806301ffc9a71461011b57806306fdde031461014b578063081812fc14610169578063095ea7b314610199575b600080fd5b61013560048036038101906101309190611b19565b610395565b6040516101429190611b61565b60405180910390f35b6101536103f6565b6040516101609190611c0c565b60405180910390f35b610183600480360381019061017e9190611c64565b610488565b6040516101909190611cd2565b60405180910390f35b6101b360048036038101906101ae9190611d19565b6104a4565b005b6101cf60048036038101906101ca9190611d59565b6104ba565b005b6101eb60048036038101906101e69190611d59565b6105bc565b005b61020760048036038101906102029190611c64565b6105dc565b6040516102149190611cd2565b60405180910390f35b61023760048036038101906102329190611dac565b6105ee565b6040516102449190611de8565b60405180910390f35b6102556106a8565b005b61025f6106bc565b60405161026c9190611cd2565b60405180910390f35b61027d6106e6565b60405161028a9190611c0c565b60405180910390f35b6102ad60048036038101906102a89190611e2f565b610778565b005b6102c960048036038101906102c49190611fa4565b61078e565b005b6102e560048036038101906102e09190611c64565b6107b3565b6040516102f29190611c0c565b60405180910390f35b6103036108c6565b6040516103109190611de8565b60405180910390f35b610333600480360381019061032e9190612027565b6108cc565b6040516103409190611b61565b60405180910390f35b610363600480360381019061035e9190612108565b610960565b6040516103709190611de8565b60405180910390f35b610393600480360381019061038e9190611dac565b6109b6565b005b6000634906490660e01b7bffffffffffffffffffffffffffffffffffffffffffffffffffffffff1916827bffffffffffffffffffffffffffffffffffffffffffffffffffffffff191614806103ef57506103ee82610a3c565b5b9050919050565b60606000805461040590612193565b80601f016020809104026020016040519081016040528092919081815260200182805461043190612193565b801561047e5780601f106104535761010080835404028352916020019161047e565b820191906000526020600020905b81548152906001019060200180831161046157829003601f168201915b5050505050905090565b600061049382610b1e565b5061049d82610ba6565b9050919050565b6104b682826104b1610be3565b610beb565b5050565b600073ffffffffffffffffffffffffffffffffffffffff168273ffffffffffffffffffffffffffffffffffffffff160361052c5760006040517f64a0ae920000000000000000000000000000000000000000000000000000000081526004016105239190611cd2565b60405180910390fd5b6000610540838361053b610be3565b610bfd565b90508373ffffffffffffffffffffffffffffffffffffffff168173ffffffffffffffffffffffffffffffffffffffff16146105b6578382826040517f64283d7b0000000000000000000000000000000000000000000000000000000081526004016105ad939291906121c4565b60405180910390fd5b50505050565b6105d78383836040518060200160405280600081525061078e565b505050565b60006105e782610b1e565b9050919050565b60008073ffffffffffffffffffffffffffffffffffffffff168273ffffffffffffffffffffffffffffffffffffffff16036106615760006040517f89c62b640000000000000000000000000000000000000000000000000000000081526004016106589190611cd2565b60405180910390fd5b600360008373ffffffffffffffffffffffffffffffffffffffff1673ffffffffffffffffffffffffffffffffffffffff168152602001908152602001600020549050919050565b6106b0610e17565b6106ba6000610e9e565b565b6000600760009054906101000a900473ffffffffffffffffffffffffffffffffffffffff16905090565b6060600180546106f590612193565b80601f016020809104026020016040519081016040528092919081815260200182805461072190612193565b801561076e5780601f106107435761010080835404028352916020019161076e565b820191906000526020600020905b81548152906001019060200180831161075157829003601f168201915b5050505050905090565b61078a610783610be3565b8383610f64565b5050565b6107998484846104ba565b6107ad6107a4610be3565b858585856110d3565b50505050565b60606107be82610b1e565b5060006006600084815260200190815260200160002080546107df90612193565b80601f016020809104026020016040519081016040528092919081815260200182805461080b90612193565b80156108585780601f1061082d57610100808354040283529160200191610858565b820191906000526020600020905b81548152906001019060200180831161083b57829003601f168201915b505050505090506000610869611284565b9050600081510361087e5781925050506108c1565b6000825111156108b357808260405160200161089b929190612237565b604051602081830303815290604052925050506108c1565b6108bc8461129b565b925050505b919050565b60085481565b6000600560008473ffffffffffffffffffffffffffffffffffffffff1673ffffffffffffffffffffffffffffffffffffffff16815260200190815260200160002060008373ffffffffffffffffffffffffffffffffffffffff1673ffffffffffffffffffffffffffffffffffffffff16815260200190815260200160002060009054906101000a900460ff16905092915050565b60008060085490506008600081548092919061097b9061228a565b919050555061098a8482611304565b6109948184611322565b600860008154809291906109a79061228a565b91905055508091505092915050565b6109be610e17565b600073ffffffffffffffffffffffffffffffffffffffff168173ffffffffffffffffffffffffffffffffffffffff1603610a305760006040517f1e4fbdf7000000000000000000000000000000000000000000000000000000008152600401610a279190611cd2565b60405180910390fd5b610a3981610e9e565b50565b60007f80ac58cd000000000000000000000000000000000000000000000000000000007bffffffffffffffffffffffffffffffffffffffffffffffffffffffff1916827bffffffffffffffffffffffffffffffffffffffffffffffffffffffff19161480610b0757507f5b5e139f000000000000000000000000000000000000000000000000000000007bffffffffffffffffffffffffffffffffffffffffffffffffffffffff1916827bffffffffffffffffffffffffffffffffffffffffffffffffffffffff1916145b80610b175750610b168261137e565b5b9050919050565b600080610b2a836113e8565b9050600073ffffffffffffffffffffffffffffffffffffffff168173ffffffffffffffffffffffffffffffffffffffff1603610b9d57826040517f7e273289000000000000000000000000000000000000000000000000000000008152600401610b949190611de8565b60405180910390fd5b80915050919050565b60006004600083815260200190815260200160002060009054906101000a900473ffffffffffffffffffffffffffffffffffffffff169050919050565b600033905090565b610bf88383836001611425565b505050565b600080610c09846113e8565b9050600073ffffffffffffffffffffffffffffffffffffffff168373ffffffffffffffffffffffffffffffffffffffff1614610c4b57610c4a8184866115ea565b5b600073ffffffffffffffffffffffffffffffffffffffff168173ffffffffffffffffffffffffffffffffffffffff1614610cdc57610c8d600085600080611425565b6001600360008373ffffffffffffffffffffffffffffffffffffffff1673ffffffffffffffffffffffffffffffffffffffff168152602001908152602001600020600082825403925050819055505b600073ffffffffffffffffffffffffffffffffffffffff168573ffffffffffffffffffffffffffffffffffffffff1614610d5f576001600360008773ffffffffffffffffffffffffffffffffffffffff1673ffffffffffffffffffffffffffffffffffffffff168152602001908152602001600020600082825401925050819055505b846002600086815260200190815260200160002060006101000a81548173ffffffffffffffffffffffffffffffffffffffff021916908373ffffffffffffffffffffffffffffffffffffffff160217905550838573ffffffffffffffffffffffffffffffffffffffff168273ffffffffffffffffffffffffffffffffffffffff167fddf252ad1be2c89b69c2b068fc378daa952ba7f163c4a11628f55a4df523b3ef60405160405180910390a4809150509392505050565b610e1f610be3565b73ffffffffffffffffffffffffffffffffffffffff16610e3d6106bc565b73ffffffffffffffffffffffffffffffffffffffff1614610e9c57610e60610be3565b6040517f118cdaa7000000000000000000000000000000000000000000000000000000008152600401610e939190611cd2565b60405180910390fd5b565b6000600760009054906101000a900473ffffffffffffffffffffffffffffffffffffffff16905081600760006101000a81548173ffffffffffffffffffffffffffffffffffffffff021916908373ffffffffffffffffffffffffffffffffffffffff1602179055508173ffffffffffffffffffffffffffffffffffffffff168173ffffffffffffffffffffffffffffffffffffffff167f8be0079c531659141344cd1fd0a4f28419497f9722a3daafe3b4186f6b6457e060405160405180910390a35050565b600073ffffffffffffffffffffffffffffffffffffffff168273ffffffffffffffffffffffffffffffffffffffff1603610fd557816040517f5b08ba18000000000000000000000000000000000000000000000000000000008152600401610fcc9190611cd2565b60405180910390fd5b80600560008573ffffffffffffffffffffffffffffffffffffffff1673ffffffffffffffffffffffffffffffffffffffff16815260200190815260200160002060008473ffffffffffffffffffffffffffffffffffffffff1673ffffffffffffffffffffffffffffffffffffffff16815260200190815260200160002060006101000a81548160ff0219169083151502179055508173ffffffffffffffffffffffffffffffffffffffff168373ffffffffffffffffffffffffffffffffffffffff167f17307eab39ab6107e8899845ad3d59bd9653f200f220920489ca2b5937696c31836040516110c69190611b61565b60405180910390a3505050565b60008373ffffffffffffffffffffffffffffffffffffffff163b111561127d578273ffffffffffffffffffffffffffffffffffffffff1663150b7a02868685856040518563ffffffff1660e01b81526004016111329493929190612327565b6020604051808303816000875af192505050801561116e57506040513d601f19601f8201168201806040525081019061116b9190612388565b60015b6111f2573d806000811461119e576040519150601f19603f3d011682016040523d82523d6000602084013e6111a3565b606091505b5060008151036111ea57836040517f64a0ae920000000000000000000000000000000000000000000000000000000081526004016111e19190611cd2565b60405180910390fd5b805181602001fd5b63150b7a0260e01b7bffffffffffffffffffffffffffffffffffffffffffffffffffffffff1916817bffffffffffffffffffffffffffffffffffffffffffffffffffffffff19161461127b57836040517f64a0ae920000000000000000000000000000000000000000000000000000000081526004016112729190611cd2565b60405180910390fd5b505b5050505050565b606060405180602001604052806000815250905090565b60606112a682610b1e565b5060006112b1611284565b905060008151116112d157604051806020016040528060008152506112fc565b806112db846116ae565b6040516020016112ec929190612237565b6040516020818303038152906040525b915050919050565b61131e82826040518060200160405280600081525061177c565b5050565b806006600084815260200190815260200160002090816113429190612561565b507ff8e1a15aba9398e019f0b49df1a4fde98ee17ae345cb5f6b5e2c27f5033e8ce7826040516113729190611de8565b60405180910390a15050565b60007f01ffc9a7000000000000000000000000000000000000000000000000000000007bffffffffffffffffffffffffffffffffffffffffffffffffffffffff1916827bffffffffffffffffffffffffffffffffffffffffffffffffffffffff1916149050919050565b60006002600083815260200190815260200160002060009054906101000a900473ffffffffffffffffffffffffffffffffffffffff169050919050565b808061145e5750600073ffffffffffffffffffffffffffffffffffffffff168273ffffffffffffffffffffffffffffffffffffffff1614155b1561159257600061146e84610b1e565b9050600073ffffffffffffffffffffffffffffffffffffffff168373ffffffffffffffffffffffffffffffffffffffff16141580156114d957508273ffffffffffffffffffffffffffffffffffffffff168173ffffffffffffffffffffffffffffffffffffffff1614155b80156114ec57506114ea81846108cc565b155b1561152e57826040517fa9fbf51f0000000000000000000000000000000000000000000000000000000081526004016115259190611cd2565b60405180910390fd5b811561159057838573ffffffffffffffffffffffffffffffffffffffff168273ffffffffffffffffffffffffffffffffffffffff167f8c5be1e5ebec7d5bd14f71427d1e84f3dd0314c0f7b2291e5b200ac8c7c3b92560405160405180910390a45b505b836004600085815260200190815260200160002060006101000a81548173ffffffffffffffffffffffffffffffffffffffff021916908373ffffffffffffffffffffffffffffffffffffffff16021790555050505050565b6115f58383836117a0565b6116a957600073ffffffffffffffffffffffffffffffffffffffff168373ffffffffffffffffffffffffffffffffffffffff160361166a57806040517f7e2732890000000000000000000000000000000000000000000000000000000081526004016116619190611de8565b60405180910390fd5b81816040517f177e802f0000000000000000000000000000000000000000000000000000000081526004016116a0929190612633565b60405180910390fd5b505050565b6060600060016116bd84611861565b01905060008167ffffffffffffffff8111156116dc576116db611e79565b5b6040519080825280601f01601f19166020018201604052801561170e5781602001600182028036833780820191505090505b509050600082602001820190505b600115611771578080600190039150507f3031323334353637383961626364656600000000000000000000000000000000600a86061a8153600a85816117655761176461265c565b5b0494506000850361171c575b819350505050919050565b61178683836119b4565b61179b611791610be3565b60008585856110d3565b505050565b60008073ffffffffffffffffffffffffffffffffffffffff168373ffffffffffffffffffffffffffffffffffffffff161415801561185857508273ffffffffffffffffffffffffffffffffffffffff168473ffffffffffffffffffffffffffffffffffffffff161480611819575061181884846108cc565b5b8061185757508273ffffffffffffffffffffffffffffffffffffffff1661183f83610ba6565b73ffffffffffffffffffffffffffffffffffffffff16145b5b90509392505050565b600080600090507a184f03e93ff9f4daa797ed6e38ed64bf6a1f01000000000000000083106118bf577a184f03e93ff9f4daa797ed6e38ed64bf6a1f01000000000000000083816118b5576118b461265c565b5b0492506040810190505b6d04ee2d6d415b85acef810000000083106118fc576d04ee2d6d415b85acef810000000083816118f2576118f161265c565b5b0492506020810190505b662386f26fc10000831061192b57662386f26fc1000083816119215761192061265c565b5b0492506010810190505b6305f5e1008310611954576305f5e100838161194a5761194961265c565b5b0492506008810190505b612710831061197957612710838161196f5761196e61265c565b5b0492506004810190505b6064831061199c57606483816119925761199161265c565b5b0492506002810190505b600a83106119ab576001810190505b80915050919050565b600073ffffffffffffffffffffffffffffffffffffffff168273ffffffffffffffffffffffffffffffffffffffff1603611a265760006040517f64a0ae92000000000000000000000000000000000000000000000000000000008152600401611a1d9190611cd2565b60405180910390fd5b6000611a3483836000610bfd565b9050600073ffffffffffffffffffffffffffffffffffffffff168173ffffffffffffffffffffffffffffffffffffffff1614611aa85760006040517f73c6ac6e000000000000000000000000000000000000000000000000000000008152600401611a9f9190611cd2565b60405180910390fd5b505050565b6000604051905090565b600080fd5b600080fd5b60007fffffffff0000000000000000000000000000000000000000000000000000000082169050919050565b611af681611ac1565b8114611b0157600080fd5b50565b600081359050611b1381611aed565b92915050565b600060208284031215611b2f57611b2e611ab7565b5b6000611b3d84828501611b04565b91505092915050565b60008115159050919050565b611b5b81611b46565b82525050565b6000602082019050611b766000830184611b52565b92915050565b600081519050919050565b600082825260208201905092915050565b60005b83811015611bb6578082015181840152602081019050611b9b565b60008484015250505050565b6000601f19601f8301169050919050565b6000611bde82611b7c565b611be88185611b87565b9350611bf8818560208601611b98565b611c0181611bc2565b840191505092915050565b60006020820190508181036000830152611c268184611bd3565b905092915050565b6000819050919050565b611c4181611c2e565b8114611c4c57600080fd5b50565b600081359050611c5e81611c38565b92915050565b600060208284031215611c7a57611c79611ab7565b5b6000611c8884828501611c4f565b91505092915050565b600073ffffffffffffffffffffffffffffffffffffffff82169050919050565b6000611cbc82611c91565b9050919050565b611ccc81611cb1565b82525050565b6000602082019050611ce76000830184611cc3565b92915050565b611cf681611cb1565b8114611d0157600080fd5b50565b600081359050611d1381611ced565b92915050565b60008060408385031215611d3057611d2f611ab7565b5b6000611d3e85828601611d04565b9250506020611d4f85828601611c4f565b9150509250929050565b600080600060608486031215611d7257611d71611ab7565b5b6000611d8086828701611d04565b9350506020611d9186828701611d04565b9250506040611da286828701611c4f565b9150509250925092565b600060208284031215611dc257611dc1611ab7565b5b6000611dd084828501611d04565b91505092915050565b611de281611c2e565b82525050565b6000602082019050611dfd6000830184611dd9565b92915050565b611e0c81611b46565b8114611e1757600080fd5b50565b600081359050611e2981611e03565b92915050565b60008060408385031215611e4657611e45611ab7565b5b6000611e5485828601611d04565b9250506020611e6585828601611e1a565b9150509250929050565b600080fd5b600080fd5b7f4e487b7100000000000000000000000000000000000000000000000000000000600052604160045260246000fd5b611eb182611bc2565b810181811067ffffffffffffffff82111715611ed057611ecf611e79565b5b80604052505050565b6000611ee3611aad565b9050611eef8282611ea8565b919050565b600067ffffffffffffffff821115611f0f57611f0e611e79565b5b611f1882611bc2565b9050602081019050919050565b82818337600083830152505050565b6000611f47611f4284611ef4565b611ed9565b905082815260208101848484011115611f6357611f62611e74565b5b611f6e848285611f25565b509392505050565b600082601f830112611f8b57611f8a611e6f565b5b8135611f9b848260208601611f34565b91505092915050565b60008060008060808587031215611fbe57611fbd611ab7565b5b6000611fcc87828801611d04565b9450506020611fdd87828801611d04565b9350506040611fee87828801611c4f565b925050606085013567ffffffffffffffff81111561200f5761200e611abc565b5b61201b87828801611f76565b91505092959194509250565b6000806040838503121561203e5761203d611ab7565b5b600061204c85828601611d04565b925050602061205d85828601611d04565b9150509250929050565b600067ffffffffffffffff82111561208257612081611e79565b5b61208b82611bc2565b9050602081019050919050565b60006120ab6120a684612067565b611ed9565b9050828152602081018484840111156120c7576120c6611e74565b5b6120d2848285611f25565b509392505050565b600082601f8301126120ef576120ee611e6f565b5b81356120ff848260208601612098565b91505092915050565b6000806040838503121561211f5761211e611ab7565b5b600061212d85828601611d04565b925050602083013567ffffffffffffffff81111561214e5761214d611abc565b5b61215a858286016120da565b9150509250929050565b7f4e487b7100000000000000000000000000000000000000000000000000000000600052602260045260246000fd5b600060028204905060018216806121ab57607f821691505b6020821081036121be576121bd612164565b5b50919050565b60006060820190506121d96000830186611cc3565b6121e66020830185611dd9565b6121f36040830184611cc3565b949350505050565b600081905092915050565b600061221182611b7c565b61221b81856121fb565b935061222b818560208601611b98565b80840191505092915050565b60006122438285612206565b915061224f8284612206565b91508190509392505050565b7f4e487b7100000000000000000000000000000000000000000000000000000000600052601160045260246000fd5b600061229582611c2e565b91507fffffffffffffffffffffffffffffffffffffffffffffffffffffffffffffffff82036122c7576122c661225b565b5b600182019050919050565b600081519050919050565b600082825260208201905092915050565b60006122f9826122d2565b61230381856122dd565b9350612313818560208601611b98565b61231c81611bc2565b840191505092915050565b600060808201905061233c6000830187611cc3565b6123496020830186611cc3565b6123566040830185611dd9565b818103606083015261236881846122ee565b905095945050505050565b60008151905061238281611aed565b92915050565b60006020828403121561239e5761239d611ab7565b5b60006123ac84828501612373565b91505092915050565b60008190508160005260206000209050919050565b60006020601f8301049050919050565b600082821b905092915050565b6000600883026124177fffffffffffffffffffffffffffffffffffffffffffffffffffffffffffffffff826123da565b61242186836123da565b95508019841693508086168417925050509392505050565b6000819050919050565b600061245e61245961245484611c2e565b612439565b611c2e565b9050919050565b6000819050919050565b61247883612443565b61248c61248482612465565b8484546123e7565b825550505050565b600090565b6124a1612494565b6124ac81848461246f565b505050565b5b818110156124d0576124c5600082612499565b6001810190506124b2565b5050565b601f821115612515576124e6816123b5565b6124ef846123ca565b810160208510156124fe578190505b61251261250a856123ca565b8301826124b1565b50505b505050565b600082821c905092915050565b60006125386000198460080261251a565b1980831691505092915050565b60006125518383612527565b9150826002028217905092915050565b61256a82611b7c565b67ffffffffffffffff81111561258357612582611e79565b5b61258d8254612193565b6125988282856124d4565b600060209050601f8311600181146125cb57600084156125b9578287015190505b6125c38582612545565b86555061262b565b601f1984166125d9866123b5565b60005b82811015612601578489015182556001820191506020850194506020810190506125dc565b8683101561261e578489015161261a601f891682612527565b8355505b6001600288020188555050505b505050505050565b60006040820190506126486000830185611cc3565b6126556020830184611dd9565b9392505050565b7f4e487b7100000000000000000000000000000000000000000000000000000000600052601260045260246000fdfea26469706673582212205be86b219d4aa3b04e69d3688719ab63f2e16082d73b7d62210eac6f245562a964736f6c63430008180033",
  "linkReferences": {},
  "deployedLinkReferences": {}
}